:020000040000FA
:100000000C94BB040C94E3040C94E3040C94E304FC
:100010000C94E3040C94E3040C94E3040C94E304C4
:100020000C94E3040C94E3040C94E3040C94E304B4
:100030000C94E3040C94E3040C94E3040C94E304A4
:100040000C94C9280C94E3040C9429270C945B2786
:100050000C94E3040C94E3040C94E3040C94E30484
:100060000C94E3040C94E30400000000003E5B4F9A
:100070005B3E3E6B4F6B3E1C3E7C3E1C183C7E3C08
:10008000181C577D571C1C5E7F5E1C00183C180016
:10009000FFE7C3E7FF0018241800FFE7DBE7FF30A6
:1000A000483A060E2629792926407F050507407F14
:1000B00005253F5A3CE73C5A7F3E1C1C08081C1C87
:1000C0003E7F14227F22145F5F005F5F06097F017D
:1000D0007F006689956A606060606094A2FFA29468
:1000E00008047E040810207E201008082A1C080836
:1000F0001C2A08081E101010100C1E0C1E0C303884
:100100003E3830060E3E0E06000000000000005F84
:1001100000000007000700147F147F14242A7F2AA0
:100120001223130864623649562050000807030062
:10013000001C2241000041221C002A1C7F1C2A08AE
:10014000083E080800807030000808080808000011
:1001500060600020100804023E5149453E00427F85
:10016000400072494949462141494D331814127FD4
:100170001027454545393C4A494931412111090774
:100180003649494936464949291E000014000000F5
:1001900040340000000814224114141414140041C7
:1001A00022140802015909063E415D594E7C121184
:1001B000127C7F494949363E414141227F414141BC
:1001C0003E7F494949417F090909013E4141517337
:1001D0007F0808087F00417F41002040413F017FA8
:1001E000081422417F404040407F021C027F7F0470
:1001F00008107F3E4141413E7F090909063E4151B9
:10020000215E7F09192946264949493203017F01A8
:10021000033F4040403F1F2040201F3F4038403FA9
:10022000631408146303047804036159494D4300BF
:100230007F4141410204081020004141417F0402F6
:10024000010204404040404000030708002054548D
:1002500078407F284444383844444428384444286B
:100260007F385454541800087E090218A4A49C78BE
:100270007F0804047800447D40002040403D007F1A
:100280001028440000417F40007C047804787C08FA
:100290000404783844444438FC18242418182424CE
:1002A00018FC7C08040408485454542404043F44B3
:1002B000243C4040207C1C2040201C3C4030403CE2
:1002C00044281028444C9090907C4464544C440042
:1002D00008364100000077000000413608000201A6
:1002E0000204023C2623263C1EA1A161123A404092
:1002F000207A385454555921555579412154547810
:1003000041215554784020545579400C1E527212A8
:100310003955555559395454545939555454580030
:1003200000457C410002457D420001457C40F029AA
:100330002429F0F0282528F07C54554500205454F9
:100340007C547C0A097F493249494932324848483D
:1003500032324A4848303A4141217A3A4240207884
:10036000009DA0A07D39444444393D4040403D3C7F
:1003700024FF2424487E4943662B2FFC2F2BFF09A2
:1003800029F620C0887E0903205454794100004496
:100390007D413048484A32384040227A007A0A0A81
:1003A000727D0D19317D2629292F282629292926F4
:1003B00030484D4020380808080808080808382F39
:1003C00010C8ACBA2F102834FA00007B00000814C3
:1003D0002A142222142A1408AA005500AAAA55AAEF
:1003E00055AA000000FF00101010FF00141414FFA5
:1003F000001010FF00FF1010F010F0141414FC0097
:100400001414F700FF0000FF00FF1414F404FC14A0
:100410001417101F10101F101F1414141F00101099
:1004200010F0000000001F101010101F101010100E
:10043000F010000000FF101010101010101010FF2E
:1004400010000000FF140000FF00FF00001F101745
:100450000000FC04F414141710171414F404F4002E
:1004600000FF00F714141414141414F700F71414F4
:1004700014171410101F101F141414F4141010F07B
:1004800010F000001F101F0000001F14000000FCEF
:10049000140000F010F01010FF10FF141414FF14DB
:1004A0001010101F00000000F010FFFFFFFFFFF012
:1004B000F0F0F0F0FFFFFF0000000000FFFF0F0F63
:1004C0000F0F0F38444438447C2A2A3E147E02021F
:1004D0000606027E027E0263554941633844443C6D
:1004E00004407E201E2006027E020299A5E7A599FF
:1004F0001C2A492A1C4C7201724C304A4D4D303036
:1005000048784830BC625A463D3E494949007E0120
:1005100001017E2A2A2A2A2A44445F444440514A3F
:10052000444040444A51400000FF0103E080FF0086
:100530000008086B6B083612362436060F090F06C2
:10054000000018180000001010003040FF010100EA
:100550001F01011E00191D1712003C3C3C3C00000D
:100560000000008D001000AE00020010004000816D
:1005700000CF00A100C800A600A8003F00D30000E3
:1005800000D5008000D900F100DA001200DB004045
:1005900000200002008D001400A400A600AF00108F
:1005A000008E2F11000C00070021002800060028F3
:1005B00000050027007F052900A18900000100FF38
:1005C000FF64002900B080FFFF1E002900FEFF0726
:1005D000002302FFFF1E00070033020100832103F6
:1005E0000030682F00FFFF2C0000802700700502FC
:1005F0000000030B000C5812000906130000311113
:10060000007F78B103053C3CB203053C3CB30605D2
:100610003C3C053C3CB40103C003280804C101C0B4
:10062000C2020D00C3028D2AC4028DEEC5011A1745
:100630000105360108E0100322070A2E30252A287A
:10064000262E3A00010313E1100416060D2D262371
:100650002727252D3B000104133A01052900F70443
:10066000A9512C82C0021109C10141C503000A80B1
:10067000B102B011B40102B6020222B701C6BE0235
:100680000004E90100360108E00F00071009170B0C
:1006900041894B0A0C0E181B0FE10F00171A040EAC
:1006A000062F4543020A0932360F11007F782900D0
:1006B0003A01553A0166F704A9512C82C00211098A
:1006C000C10141C503000A80B102B011B40102B6F4
:1006D000020222B701C6BE020004E9010036010889
:1006E0003A0155E00F00071009170B41894B0A0C1E
:1006F0000E181B0FE10F00171A040E062F454302B8
:100700000A0932360F11007F7829002E018929014C
:100710008F2B0102E20100E40101E50110E6010175
:10072000E70110E80170F20100EA0100EB0120ECA2
:10073000013CED01C8E90138F101011B011A1A0160
:100740000124016125015C2301881801361901018A
:100750001F01887F051F01807F051F01907F051FF6
:1007600001D47F051701053601002801387F2828AC
:10077000013C0201000301000401000501EF060134
:100780000007010008010109013F0100B903FF83CF
:10079000577FFAB30400000606B60125B00168CC05
:1007A0000105B10600151C1C83AAC0065050013C6F
:1007B0001E08B4070240002A2A0D783A0155360176
:1007C000C03501004402000211007F9629007F32EB
:1007D00001007F322800F603010100CF03008130C1
:1007E000ED0464031281E803851078CB05392C00F1
:1007F0003402F70120EA020000B00100B40100C099
:100800000121C10111C5023F3CC701B53601883A3B
:100810000155B102001B360148F20100260101E03A
:100820000F0F26240B0E0954A8460C17090F0700BA
:10083000E10F00191B0410072A4739030606303858
:100840000FB7010711007F96290000000100FFFF8C
:100850003200010000010200000703003010040014
:10086000000008000202090000000A0000000C005D
:1008700000000D0000000F0000001000000011003B
:1008800007001200000013000000FFFFC800100066
:10089000901611002702FFFF320012001A00FFFF1E
:1008A00032001300001829002A00FFFF3200300038
:1008B0000000310000003200000035000602360062
:1008C00008083700070038000102390000003C002A
:1008D00000003D000000200000002100000050004A
:1008E00000005100EF005200000053003F01600083
:1008F00000A7610003006A00000090001000920051
:10090000000093000300950000119700000098007C
:10091000000007003301000000090003020000048A
:1009200005080000000000000000000000010204B3
:100930000810204080010204081020010204081061
:10094000204080400404040404040404020202025F
:100950000202030303030303020203000000002555
:100960000028002B0000000000240027002A0000BF
:100970001B0FA50F8B2711241FBECFEFD8E0DEBFC2
:10098000CDBF12E0A0E0B1E0E8EAF3E602C00590D6
:100990000D92AC33B107D9F727E0ACE3B2E001C068
:1009A0001D92AC33B207E1F714E0CBEBD4E004C006
:1009B0002197FE010E94F22CC83BD107C9F70E9483
:1009C000B4280C94D2310C9400008EBD00000DB4FC
:1009D00007FEFDCF8EB5089560E085E10E94FE29F7
:1009E00086E40E94E50480EE0E94E5048CE30E9408
:1009F000E5048BEA0E94E50480E00E94E50486E0BD
:100A00000E94E50461E085E10C94FE29282F86EF21
:100A1000820F8C3148F4822F6AE00E94662C983055
:100A200018F481E02B3109F480E00895CF93DF932F
:100A3000C82F6AE00E94662CD92F8C2F0E940605D1
:100A40008823B9F02C2F2D1B330BC9016AE070E00D
:100A50000E94722C615071096330710550F4660F69
:100A6000771FFB01EE51FE4F80819181DF91CF9185
:100A7000089590E080E0FACFCF93DF93C82F6AE02B
:100A80000E94662CD92F8C2F0E9406058823B9F06E
:100A90002C2F2D1B330BC9016AE070E00E94722CD1
:100AA000615071096330710550F4660F771FFB01C7
:100AB000E452FE4F80819181DF91CF91089590E0C3
:100AC00080E0FACFCF93DF93C82FD62F0E94160570
:100AD000FC0120818C2F6AE00E94662C41E050E0EE
:100AE00001C0440F9A95EAF79081842F809589235D
:100AF000242B282791E0D11101C090E09195292362
:100B000028272083DF91CF910895CF93C82F0E948B
:100B10001605FC0120818C2F6AE00E94662C392F7B
:100B200081E090E001C0880F3A95EAF728272083FA
:100B3000CF910895CF93C82F0E9485058C2FCF9118
:100B40000C948505CF93C82F0E943C05FC012081A1
:100B50008C2F6AE00E94662C492F81E090E0042EE1
:100B600002C0880F991F0A94E2F730E08223932392
:100B700002C0959587954A95E2F7CF9108952F92F7
:100B80003F924F925F926F927F928F929F92AF921D
:100B9000BF92CF92DF92EF92FF920F931F93CF936A
:100BA000DF93CDB7DEB7C557D1090FB6F894DEBFD6
:100BB0000FBECDBF8CE392E00E94E42561E08CE3A0
:100BC00092E00E94FE2070E060E08CE392E00E94E0
:100BD000111370E060E08CE392E00E94EC136FEF81
:100BE0007FEF8CE392E00E94F01361E08CE392E0EF
:100BF0000E94F71389E1E4E8F1E0DE01D596019067
:100C00000D928A95E1F78DB79EB749970FB6F89484
:100C10009EBF0FBE8DBFADB7BEB7119689E1FE0175
:100C2000F59601900D928A95E1F70E947A0C1F9239
:100C30001F92EDB7FEB779970FB6F894FEBF0FBEBF
:100C4000EDBFADB7BEB7119689E1FE01F5960190F3
:100C50000D928A95E1F70E94D30C0FB6F894DEBF8F
:100C60000FBECDBF95E0792E7F9284E18F93EDB7D3
:100C7000FEB779970FB6F894FEBF0FBEEDBFADB7C4
:100C8000BEB7119689E1FE01F59601900D928A9505
:100C9000E1F70E94D30C23E0622E6F9280E28F93E3
:100CA0008DB79EB749970FB6F8949EBF0FBE8DBF04
:100CB000ADB7BEB7119689E1FE01F59601900D9290
:100CC0008A95E1F70E94D30C0FB6F894DEBF0FBEF1
:100CD000CDBF1F9208EC0F938DB79EB749970FB603
:100CE000F8949EBF0FBE8DBFADB7BEB7119689E118
:100CF000FE01F59601900D928A95E1F70E94D30CC2
:100D00001F921F92EDB7FEB779970FB6F894FEBF0A
:100D10000FBEEDBFADB7BEB7119689E1FE01F596E6
:100D200001900D928A95E1F70E949F0B0FB6F894FF
:100D3000DEBF0FBECDBF1F9211E01F93EDB7FEB710
:100D400079970FB6F894FEBF0FBEEDBFADB7BEB733
:100D5000119689E1FE01F59601900D928A95E1F7D1
:100D60000E949F0B1F927F928DB79EB749970FB637
:100D7000F8949EBF0FBE8DBFADB7BEB7119689E187
:100D8000FE01F59601900D928A95E1F70E949F0B66
:100D90000FB6F894DEBF0FBECDBF1F928AE08F93CF
:100DA0008DB79EB749970FB6F8949EBF0FBE8DBF03
:100DB000ADB7BEB7119689E1FE01F59601900D928F
:100DC0008A95E1F70E949F0B38E7532E5F921F929E
:100DD0000F931F921F93EDB7FEB779970FB6F89454
:100DE000FEBF0FBEEDBFADB7BEB7119689E1FE01E4
:100DF000F59601900D928A95E1F70E94A10A0FB62F
:100E0000F894DEBF0FBECDBF5F921F921F921F925C
:100E10001F92EDB7FEB779970FB6F894FEBF0FBEDD
:100E2000EDBFADB7BEB7119689E1FE01F596019011
:100E30000D928A95E1F70E94A10A8BE28F936F923F
:100E400084E88F931F927F928DB79EB749970FB614
:100E5000F8949EBF0FBE8DBFADB7BEB7119689E1A6
:100E6000FE01F59601900D928A95E1F70E94A10A84
:100E70000FB6F894DEBF0FBECDBF8EE28F931F93E7
:100E800084EF8F931F9212E01F938DB79EB74997FF
:100E90000FB6F8949EBF0FBE8DBFADB7BEB711960B
:100EA00089E1FE01F59601900D928A95E1F70E9485
:100EB000A10A8FE68F931F9386E28F931F9249E0DA
:100EC000642E6F92EDB7FEB779970FB6F894FEBF18
:100ED0000FBEEDBFADB7BEB7119689E1FE01F59625
:100EE00001900D928A95E1F70E94A10A0FB6F8943D
:100EF000DEBF0FBECDBF8FE48F931F9284E68F932A
:100F00001F928CE08F93EDB7FEB779970FB6F894E8
:100F1000FEBF0FBEEDBFADB7BEB7119689E1FE01B2
:100F2000F59601900D928A95E1F70E94A10A54E48A
:100F3000752E7F926F9280E88F931F9261E4662EE8
:100F40006F9290E19F931F921F9293E49F9398E476
:100F50009F931F921F929FE39F938F931F921F92C5
:100F60008DB79EB749970FB6F8949EBF0FBE8DBF41
:100F7000ADB7BEB7119689E1FE01F59601900D92CD
:100F80008A95E1F70E940F0C0FB6F894DEBF0FBEF2
:100F9000CDBF82E48F930F931F921F926F9280E4D4
:100FA0008F931F921F927F9291E69F931F921F92A1
:100FB0008F9380EA8F931F921F928DB79EB74997A8
:100FC0000FB6F8949EBF0FBE8DBFADB7BEB71196DA
:100FD00089E1FE01F59601900D928A95E1F70E9454
:100FE0000F0C0FB6F894DEBF0FBECDBF05E524E6AB
:100FF00030E044E650E064E170E084E190E00E947B
:10100000040E0FE02EE630E044E650E06EE170E0C2
:1010100084E190E00E94040E07E228E730E044E615
:1010200050E068E270E084E190E00E94040E03E387
:1010300022E830E044E650E062E370E084E190E0D2
:101040000E94040ECE01845A9F4F28E0EDE9F1E0A2
:10105000DC0101900D922A95E1F724E3E5EAF1E045
:10106000AE014F5F5F4FDA0101900D922A95E1F7D3
:101070002CE5C22E2F962FAF2F9721E060962FAF31
:1010800060972CE3E22E61962FAF619762961FAEB8
:10109000629720E8022F63962FAF639764961FAE86
:1010A000649730E0232F65963FAF659731E06696F1
:1010B0003FAF669768961FAF6897642F6A965FAFD9
:1010C0004EAF6A976C969FAF8EAF6C979DE0679618
:1010D0009FAF6797DD24D394F12C10E04DE052E0F0
:1010E0006A967FAD6A976C969FAD6C970E94391097
:1010F00088EE91E09F938F93912C812CB12CA12CA1
:101100002F96CFAC2F976096DFAC60976196EFACCF
:1011100061976296FFAC629763960FAD6397649692
:101120001FAD649765962FAD659766963FAD669740
:1011300067964FAD679768965FAD689769966FAD94
:1011400069976A967FAD6A976B968FAD6B976C9631
:101150009FAD6C970E94BC118DEE91E09F938F9391
:10116000AA24A394B12C2F96CFAC2F976096DFAC16
:1011700060976196EFAC61976296FFAC6297639659
:101180000FAD639764961FAD649765962FAD659715
:1011900066963FAD669767964FAD679768965FAD69
:1011A000689769966FAD69976A967FAD6A976B96F7
:1011B0008FAD6B976C969FAD6C970E94BC110F9092
:1011C0000F900F900F9086E790E0E2969FAF8EAF62
:1011D000E29766246394712C2E019AE6490E511C05
:1011E000F2013296E496FFAFEEAFE4971E01F4E60B
:1011F0002F0E311CC1010296E6969FAF8EAFE69787
:10120000F20111821082E496EEADFFADE49724E086
:1012100011922A95E9F77F926F9282EF91E09F9366
:101220008F935F924F920E94FA2EF10111821082E9
:10123000E696EEADFFADE69724E011922A95E9F728
:10124000E2968FADE2978F93E1969FADE1979F93E2
:10125000E5EFF1E0FF93EF933F922F920E94FA2E79
:101260008DE067968FAF67975F924F924301B12CE5
:10127000A12C2F96CFAC2F976096DFAC609761962C
:10128000EFAC61976296FFAC629763960FAD639780
:1012900064961FAD649765962FAD659766963FADD2
:1012A000669767964FAD679768965FAD6897699642
:1012B0006FAD69976A967FAD6A976B968FAD6B97A6
:1012C0006C969FAD6C970E94BC11E2968EAD9FAD5F
:1012D000E2970E94730D8F937F936F93AA24A39438
:1012E000B12C2F96CFAC2F976096DFAC60976196AC
:1012F000EFAC61976296FFAC629763960FAD639710
:1013000064961FAD649765962FAD659766963FAD61
:10131000669767964FAD679768965FAD68976996D1
:101320006FAD69976A967FAD6A976B968FAD6B9735
:101330006C969FAD6C970E9442123F922F922F960F
:10134000CFAC2F976096DFAC60976196EFAC61975A
:101350006296FFAC629763960FAD639764961FAD7C
:10136000649765962FAD659766963FAD66976796CD
:101370004FAD679768965FAD689769966FAD69974F
:101380006A967FAD6A976B968FAD6B976C969FADA3
:101390006C970E94BC119FEF691A790AE296EEAD34
:1013A000FFADE297EA58FF4FE296FFAFEEAFE2974C
:1013B0000FB6F894DEBF0FBECDBF9CE06916710476
:1013C00009F01ECFCB58DF4F0FB6F894DEBF0FBE2B
:1013D000CDBFDF91CF911F910F91FF90EF90DF90E4
:1013E000CF90BF90AF909F908F907F906F905F90C5
:1013F0004F903F902F9008952F923F924F925F927F
:101400006F927F928F929F92AF92BF92CF92DF9214
:10141000EF92FF920F931F93CF93DF93CDB7DEB779
:10142000EB8CFC8C0DA510E01801220C331C6F898D
:10143000788D6E0D7F1D601B710B90E080E00E9427
:10144000472B2B013C0168A979A990E080E00E941C
:10145000472B4B015C012DA13EA14FA158A569A5C9
:101460007AA58BA59CA50E942D2A9B01AC01C501E4
:10147000B4010E949F2A4B015C01E218F308B701F6
:1014800090E080E00E94472B9B01AC01C501B401B4
:101490000E94F92B9B01AC01C301B2010E942D2ACD
:1014A0000E94182B6B016EA57FA590E080E00E9442
:1014B000472B2B013C012D8D3E8D4F8D58A169A1ED
:1014C0007AA18BA19CA10E942D2A9B01AC01C30192
:1014D000B2010E949F2A2B013C01698D7A8D62190D
:1014E000730990E080E00E94472B9B01AC01C3018F
:1014F000B2010E94F92B4B015C016D897E89600F5E
:10150000711F90E080E00E94472B9B01AC01C50158
:10151000B4010E942E2A0E94182BC601DF91CF91A0
:101520001F910F91FF90EF90DF90CF90BF90AF9001
:101530009F908F907F906F905F904F903F902F90F3
:1015400008954F925F926F927F92AF92BF92CF9227
:10155000DF92EF92FF920F931F93CF93DF93CDB75C
:10156000DEB78AA59BA52CA53DA51EA53F932F936D
:101570009F938F938DB79EB749970FB6F8949EBFF0
:101580000FBE8DBFADB7BEB7119689E1FE01719652
:1015900001900D928A95E1F70E94FC092B013C0114
:1015A0000FB6F894DEBF0FBECDBF1F3409F489C05B
:1015B000ACF41B32C1F1AC011E3209F46FC0DF91F3
:1015C000CF911F910F91FF90EF90DF90CF90BF9040
:1015D000AF907F906F905F904F9008951F3609F401
:1015E00043C0183761F77C0192E0E90EF11C6201FB
:1015F00082E0C80ED11C530192E0A91AB10882E022
:10160000481A510887019601A501B2018CE392E0C6
:101610000E944D1385019601A701B2018CE392E06F
:101620000E944D13CCCF6250710925E030E0AC012F
:101630008CE392E00E943713A3014250510925E048
:1016400030E0B2018CE392E0DF91CF911F910F91D6
:10165000FF90EF90DF90CF90BF90AF907F906F9012
:101660005F904F900C94201361507109AC018CE392
:1016700092E00E941513B2016F5F7F4FA3018CE3CC
:1016800092E00E941513A30141505109B2018CE36D
:1016900092E00E941513A3014F5F5F4FB2018CE3EC
:1016A00092E0DF91CF911F910F91FF90EF90DF902B
:1016B000CF90BF90AF907F906F905F904F900C94C1
:1016C00015136C0191E0C91AD108B2016250710979
:1016D00023E030E0A6018CE392E00E942013720127
:1016E00081E0E81AF108A3014250510923E030E0FB
:1016F000B7018CE392E00E943713B2016E5F7F4F17
:1017000023E030E0A6018CE392E00E942013A301C5
:101710004E5F5F4F23E030E0B7018CE392E0DF9152
:10172000CF911F910F91FF90EF90DF90CF90BF90DE
:10173000AF907F906F905F904F900C9437138F9283
:101740009F92AF92BF92CF92DF92EF92FF920F9350
:101750001F93CF93DF93CDB7DEB7E8A4F9A41F9210
:101760001F92FF92EF928DB79EB749970FB6F894EC
:101770009EBF0FBE8DBFADB7BEB7119689E1FE010A
:101780003F9601900D928A95E1F70E94FC094B016A
:101790005C01CFA0C694C694C694C7010E94B7123C
:1017A000D82EA5014250510925E030E0B4018CE368
:1017B00092E00E94201385010E5F1F4FD69426E011
:1017C000D29EC0011124C89E9001C99E300D1124E3
:1017D00022503109C401821B930B9C01A70170E0C8
:1017E00060E08AE0A82EB12C90E2C92EEE24E394AA
:1017F000F12C8CE392E00E9482150FB6F894DEBFC4
:101800000FBECDBFDF91CF911F910F91FF90EF9051
:10181000DF90CF90BF90AF909F908F900895CF9220
:10182000DF92EF92FF920F931F93CF93DF93CDB789
:10183000DEB768A579A58AA59BA50E94182B7F9382
:101840006F936CA17DA18EA19FA10E94182B7F9305
:101850006F932DB73EB7295131090FB6F8943EBFAB
:101860000FBE2DBFADB7BEB7119689E1FE013B9605
:1018700001900D928A95E1F70E94FC096B017C01B1
:1018800068A979A98AA99BA90E94182B7F936F93B5
:101890006CA57DA58EA59FA50E94182B7F936F93A5
:1018A0008DB79EB749970FB6F8949EBF0FBE8DBFF8
:1018B000ADB7BEB7119689E1FE013B9601900D923E
:1018C0008A95E1F70E94FC090FB6F894DEBF0FBEBF
:1018D000CDBF8C019B01A701B6018CE392E00E9471
:1018E0004D13DF91CF911F910F91FF90EF90DF90FB
:1018F000CF9008952F923F924F925F926F927F9276
:101900008F929F92AF92BF92CF92DF92EF92FF920F
:101910000F931F93CF93DF93CDB7DEB70D891E8949
:10192000AF88B88C898C9A8C6B8C7C8CEDA4CE2C77
:10193000D12C2501460C571C4C185D089401A201BE
:10194000B8018CE392E00E9437131601200E311E7D
:101950009301A501B1018CE392E00E942013E6946B
:10196000F12CB801680D791DC2018701960141E093
:101970000E94A60DB101C501960140E00E94A60D8E
:10198000DF91CF911F910F91FF90EF90DF90CF905B
:10199000BF90AF909F908F907F906F905F904F908F
:1019A0003F902F9008954F925F926F927F929F92F7
:1019B000AF92BF92CF92DF92EF92FF920F931F935D
:1019C000CF93DF93CDB7DEB7EBA4FCA48CE392E01A
:1019D0000E940023982EFF92EF921F921F922DB724
:1019E0003EB7295131090FB6F8943EBF0FBE2DBF47
:1019F000ADB7BEB7119689E1FE01729601900D92C6
:101A00008A95E1F70E94FC092B013C018CE392E0EE
:101A10000E9478166301C094D094C80ED91E2AA5DE
:101A2000122F169516951695C7010E94B712B82E5B
:101A3000292D2150330BC90164E070E00E94722C03
:101A4000682F8CE392E00E94FE20A20142505109CF
:101A500025E030E0B6018CE392E00E942013212FB4
:101A600030E0C90143E0880F991F4A95E1F78201F0
:101A7000081B190BB69446E0B49EC0011124829F46
:101A8000A001839F500D929F500D11244250510987
:101A90009601241B350BA70170E060E0EAE0AE2E52
:101AA000B12CF0E2CF2EEE24E394F12C8CE392E003
:101AB0000E9482150FB6F894DEBF0FBECDBF692D10
:101AC0008CE392E0DF91CF911F910F91FF90EF9007
:101AD000DF90CF90BF90AF909F907F906F905F907E
:101AE0004F900C94FE20CF92DF92EF92FF926C0108
:101AF000F12CE12C9C01220F331F25313540A0F041
:101B0000A1E0BFEFA7019C010E94D92C6451714F45
:101B10008A4F9F4F0E94862C722F6FEF8EE1FF90AD
:101B2000EF90DF90CF9008959C01AFEFB0E00E945E
:101B3000C72C24E135E040E050E02C193D094E0966
:101B40005F090E94862C622F7FEFE8CF8F929F92D1
:101B5000AF92BF92DF92EF92FF920F931F93CF93BA
:101B6000DF934B015C01D42E78018F2DE90122E037
:101B7000421759F123E0421751F081E048130AC09F
:101B8000882799278C1B9D0BE8017C0103C07E01EF
:101B9000C02FD82F8E010A0D1B1D9701280D391D4E
:101BA000A501B4018CE392E00E944D1321E0D2160E
:101BB00041F0D21670F082E0D81659F023E0D2122C
:101BC0000BC0D195C195D10907C0D195C195D10957
:101BD000E1CFF194E194F1088E010A0D1B1D9701EC
:101BE000280D391DA501B4018CE392E00E944D132C
:101BF000DF91CF911F910F91FF90EF90DF90BF90F9
:101C0000AF909F908F9008952F923F924F925F9246
:101C10006F927F928F929F92AF92BF92CF92DF92FC
:101C2000EF92FF920F931F93CF93DF93CDB7DEB761
:101C300062970FB6F894DEBF0FBECDBF6C015B019B
:101C40007A013A8329834817590749F42617370739
:101C500031F4A901B7018CE392E00E941513EC184E
:101C6000FD0829813A812A193B093A8329834701D2
:101C7000F7FE04C0882499248E189F0829803A8092
:101C800037FE03C0319421943108B7010F2C000CAA
:101C9000880B990B0E94492B2B013C01A981BA8129
:101CA000BD01BB0F880B990B0E94492B28143904E6
:101CB0000CF083C0A30192010E949F2A69837A835A
:101CC0008B839C831401F7FE91C0DC01CB01B058DB
:101CD00089839A83AB83BC83412C512C90E8692E75
:101CE0009FEB792E1A8A198A002E000C110BC50160
:101CF000BB0CAA0BBB0B89879A87AB87BC87C60135
:101D0000DD0CAA0BBB0B8D879E87AF87B88BA9898B
:101D1000BA892A163B0609F475C0CD018770992748
:101D2000980102C0359527958A95E2F720FF3FC0BC
:101D3000BD0190E080E00E94472B6B017C0169852A
:101D40007A858B859C850E94492B4B015C012981FA
:101D50003A814B815C81C701B6010E94F92B9B013E
:101D6000AC01C501B4010E942E2A0E94112B6D8383
:101D70007E838F8398876D857E858F8598890E9465
:101D8000492B4B015C01A3019201C701B6010E94DE
:101D9000F92B9B01AC01C501B4010E942E2A0E94BF
:101DA000112B4D815E818CE392E00E94151389898D
:101DB0009A8901969A8B898BAACF9B01AC01C301AA
:101DC000B2010E949F2A2B013C01A981BA81B7FF71
:101DD00014C077FA709477F8709480E090E0A0E8EF
:101DE000BFEB89839A83AB83BC837CCF412C512C7E
:101DF00080E8682E8FE3782E75CF80E090E0A0E831
:101E0000BFE3EFCF62960FB6F894DEBF0FBECDBF33
:101E1000DF91CF911F910F91FF90EF90DF90CF90C6
:101E2000BF90AF909F908F907F906F905F904F90FA
:101E30003F902F900895EF920F93EE24EA9408E0DC
:101E400029E047E06CE070E08CE392E00E948B16A2
:101E50000F91EF900895E6E0F1E030E020E040815E
:101E6000518148235923452B49F0F901EE0FFF1FFB
:101E7000E20FF31FEA5FFE4F828108952F5F3F4F0D
:101E800033962031310559F708950E9410108F7054
:101E90000895CF93C82F682F617084E20E94620575
:101EA000C1FB662760F983E2CF910C946205BC0107
:101EB00080918C0290918D020C94B60FEF92FF925C
:101EC0000F931F93CF93DF93F12CE12CC0E010E030
:101ED00000E08C2F0E94490F0E94450F90E00E2CCD
:101EE00002C0880F991F0A94E2F7082B192BCF5FC5
:101EF00084E0E80EF11CC43061F7C0918A02D091F1
:101F00008B02C095D095C023D12310938B020093F0
:101F10008A02209799F000918C0210918D02D801CD
:101F200012968D919C911397892B41F0ED91FC9124
:101F3000CE010995F80102811381F1CFDF91CF9194
:101F40001F910F91FF90EF9008950E94AC0F909316
:101F50008D0280938C02089584E090E00E94C32853
:101F6000FC0111821082138212820895CF93DF93B5
:101F7000EC018A819B810097D9F7798368830E945D
:101F8000AC0F9B838A83DF91CF9108950E942B0F22
:101F9000682F82E996E00C9416280E94091026E02A
:101FA00040E052EC61E070E082E996E00E94D726C2
:101FB00080919002882381F09FB7F89480919002DD
:101FC0008130E1F48DB380938E022DB380918F0226
:101FD000809582238DBB9FBF80E58CBD81E08DBD48
:101FE0000E94EC0468EF71E082E996E00E94FF270E
:101FF00086EC9FE00E94570F0C94BF0590938E02D1
:10200000EBCF0E945E0F6AE070E080E090E00C94FD
:1020100038298FEE84B98FE387B982EE8AB90895A3
:102020001F93CF93DF9360E080E10E94620581E11E
:102030000E949A0561E080E10E946205D0E0C0E064
:1020400010E081E10E949A0582E20E94A205082E1A
:10205000000C990B0C2E01C0880F0A94EAF7182B7C
:102060002196C830D10569F7812FDF91CF911F915B
:1020700008952F923F924F925F926F927F928F922C
:102080009F92AF92BF92CF92DF92EF92FF920F9307
:102090001F93CF93DF93CDB7DEB768970FB6F89451
:1020A000DEBF0FBECDBFC982DA82EB82FC820D8318
:1020B0001E832F83388749875A876B877C878D8754
:1020C0009E8789819A81988B8F87EB81FC81FA8B1F
:1020D000E98B8D819E819C8B8B8BEF81F885FE8BAC
:1020E000ED8B6F8B788F0D851E85312C212CEF8524
:1020F000F8894F01B12CA12C8B899C892C01712C62
:10210000612C8A858215130409F068F50F89188DF2
:10211000312C212CE989FA896F01F12CE12C8D8970
:102120009E894C01B12CA12C89858215130409F0DC
:1021300008F48DC0F801408051806280738020E0F7
:1021400030E0A901C301B2010E949A2A87FF51C061
:10215000F8011082118212821382FFEF2F1A3F0AB8
:102160000C5F1F4FE1CFF801C080D180E280F38087
:1021700020E030E0A901C701B6010E949A2A87FF3A
:102180000BC0F8011082118212821382FFEF2F1A06
:102190003F0A0C5F1F4FB5CF20E030E040E85FE31F
:1021A000C701B6010E949A2A18166CF0C301B20149
:1021B0000E94472BA70196010E94F92BF80160832A
:1021C000718382839383C501B4010E94472BF80178
:1021D00020813181428153810E942E2A0E94112B3D
:1021E0002D893E8949895A898CE392E00E94201307
:1021F000CDCF20E030E040E85FE3C301B2010E94B0
:102200009A2A18166CF0C501B4010E94472BA3014D
:1022100092010E94F92BF80160837183828393837A
:10222000C701B6010E94472BF8012081318142810C
:1022300053810E942E2A0E94112B2B893C89AB01CD
:102240006F8578898CE392E00E94371386CF689679
:102250000FB6F894DEBF0FBECDBFDF91CF911F91B7
:102260000F91FF90EF90DF90CF90BF90AF909F9035
:102270008F907F906F905F904F903F902F90089538
:102280008F929F92AF92BF92CF92DF92EF92FF9286
:102290000F931F93CF93DF93CDB7DEB72E970FB673
:1022A000F894DEBF0FBECDBFC982DA82EB82FC821A
:1022B0000D831E832F83388749875A876B877C87D6
:1022C0008D879E8769817A810B811C815A151B0439
:1022D00009F008F447C0AA0CBB1CAA0CBB1C8D85D6
:1022E0009E85A80EB91E90E080E00E94472BF50164
:1022F00020813181428153810E942E2A0E94182B15
:102300007B0189858815190491F188F1880C991C45
:10231000880C991C8B859C85880E991EB80190E0CD
:1023200080E00E94472BF40120813181428153815A
:102330000E942E2A0E94182B8B01B701C8012E96ED
:102340000FB6F894DEBF0FBECDBFDF91CF911F91C6
:102350000F91FF90EF90DF90CF90BF90AF909F9044
:102360008F900895ED80FE80E60EF71ECACF6F8134
:102370007885060F171FE1CF8F929F92AF92BF9281
:10238000CF92DF92EF92FF920F931F93CF93DF9341
:10239000CDB7DEB764970FB6F894DEBF0FBECDBFE2
:1023A000CF82D886E986FA860B871C872D873E87E1
:1023B0004F87588B698B7A8B8B8B9C8B09891A89F9
:1023C00061E08CE392E00E94F713F4013196EE0F86
:1023D000FF1FEE0FFF1FE00FF11FDF0114972D917C
:1023E0003D914D915C9160817181828193810E94C8
:1023F0002D2A20E030E040E05EE30E94F92B0E94AD
:10240000182B8CE392E00E94F413CF80D884E984E7
:10241000FA840B851C852D853E854F8558896989F1
:102420007A898B899C890E9440115C0124E0A20E6C
:10243000B11C8B010C5F1F4F6BA17CA1CE010196DB
:102440000E949A289501A801BE016F5F7F4F8CE31F
:1024500092E00E947D15CE0101960E942828649684
:102460000FB6F894DEBF0FBECDBFDF91CF911F91A5
:102470000F91FF90EF90DF90CF90BF90AF909F9023
:102480008F9008952F923F924F925F926F927F921A
:102490008F929F92AF92BF92CF92DF92EF92FF9274
:1024A0000F931F93CF93DF93CDB7DEB767970FB628
:1024B000F894DEBF0FBECDBF322E2F8338874987F9
:1024C0005A876B877C878D879E872CA5298B2DA5A6
:1024D0002A8B2EA52B8B232D0E9440111B012C0132
:1024E0008FEF881A980A2FEFA21AB20A2F81388527
:1024F00049855A856B857C858D859E850E94401116
:102500005B0121E0A21AB108A218B3088C010150A6
:102510001109041915092B894A8969898CE392E00C
:102520000E946216A2014F5F5F4FB1016F5F7F4F44
:102530007C0195018CE392E00E94B91E67960FB66C
:10254000F894DEBF0FBECDBFDF91CF911F910F91E9
:10255000FF90EF90DF90CF90BF90AF909F908F90C3
:102560007F906F905F904F903F902F90089520E064
:10257000EAE0F0E02F5FAC01475F5F4F4331510568
:1025800028F0BF010E94722CCB01F4CF822F089556
:10259000CF93CFB7F89480919102811127C0EEE4D8
:1025A000F9E08491E7E3F9E09491E82FF0E0EE0F91
:1025B000FF1FEB59F64FA591B491EC91E92321F45B
:1025C00061E08AE00E94FE2961E08AE00E94C2295F
:1025D0008CB580618CBD8CB580648CBD61E08DE074
:1025E0000E94C22961E08BE00E94C2298091910281
:1025F0008F5F80939102CFBFCF910895FC0183E05C
:1026000092E09183808380E098EF9187808720EE2D
:1026100037E0378326839387828781E08487158616
:102620000895FC01738762870895DC011A962D9145
:102630003C911B97ED91FC910280F381E02D099470
:10264000EF92FF920F931F93DC011A96ED90FC908E
:102650001B97ED91FC910480F581E02D890121E02B
:1026600030E009951F910F91FF90EF900895EF9240
:10267000FF920F931F93DC011A96ED90FC901B972D
:10268000ED91FC910480F581E02D01E010E00995C9
:102690001F910F91FF90EF9008952F923F924F92CC
:1026A0005F926F927F928F929F92AF92BF92CF92E2
:1026B000DF92EF92FF920F931F93CF93DF9300D09F
:1026C00000D0CDB7DEB79A8389837C836B837A0190
:1026D00069015801A41AB50AB7FE03C0B194A194C8
:1026E000B10846018B819C81881A990A97FE03C024
:1026F0009194819491088A149B045CF49C2D8D2DF7
:102700006801092F182F9B818C81FC82EB82E92EB6
:10271000F82E8B819C81C816D9065CF49E2D8F2DD6
:102720007801092F182F9B818C81DC82CB82C92EE6
:10273000D82E16018B819C81281A390A28014E183F
:102740005F0857FE03C0519441945108310137FE90
:1027500003C09FEF691A790A75946794E016F10631
:102760000CF10FEF1FEF8B819C81C816D906ECF09E
:10277000AC01B7018A149B041CF0A7016B817C811A
:1027800089819A810E9415136418750877FE04C028
:10279000E00EF11E620C731C8B819C8101969C8360
:1027A0008B83E1CF01E010E0DECF0F900F900F9010
:1027B0000F90DF91CF911F910F91FF90EF90DF90DD
:1027C000CF90BF90AF909F908F907F906F905F90D1
:1027D0004F903F902F900895FC0177836683089572
:1027E000FC01718760870895FC0164870895FC01EE
:1027F000658708952F923F924F925F926F927F92DA
:102800008F929F92AF92BF92CF92DF92EF92FF9200
:102810000F931F93CF93DF93CDB7DEB72D970FB6EE
:10282000F894DEBF0FBECDBF3C014B012A01D22E72
:102830001C830B83FE82ED82CA82A986DC01ED91A6
:10284000FC910684F785E02D0995881699060CF011
:102850007AC0D301ED91FC910484F585E02DC3018C
:102860000995481659060CF06EC03A81232F30E0C6
:102870003D872C87C401AA8146E0A49F800D911D4D
:102880001124181619060CF05EC0C90123E0880F48
:10289000991F2A95E1F7840D951D181619060CF05D
:1028A00052C0BFEABD1508F4D3945401198288E6DA
:1028B00090E0881999099C0145E0D49E200D311DB6
:1028C00011243B872A878981E0E0853029F0EA8559
:1028D000FB85EA0DFB1DE4916201312C212CAE2F0A
:1028E000B0E0B887AF83E0FF54C0D301ED91FC9115
:1028F000BA81B13009F040C00280F381E02D2B8114
:102900003C81A201420D531DB501C3010995EF8120
:10291000F885F595E7952FEF221A320A8C859D856B
:10292000C80ED91E98E029163104C9F6AFEFAA1ACD
:10293000BA0A2C853D85820E931E39813F5F39830B
:10294000363009F0C0CF2D960FB6F894DEBF0FBE1B
:10295000CDBFDF91CF911F910F91FF90EF90DF904E
:10296000CF90BF90AF909F908F907F906F905F902F
:102970004F903F902F9008950480F581E02DEB80DB
:10298000FC800C851D859801A601B401C301099541
:10299000BECF2D813E818B819C812817390709F498
:1029A000B6CF99859111B3CFD301ED91FC91BA8146
:1029B000B13021F40280F381E02DA3CF0480F581B2
:1029C000E02DED80FE80DDCFAF92CF92EF92FF92AF
:1029D0000F931F93CF93DF93EC016A30C1F48C8582
:1029E00098E0899F900111248C819D81820F931F13
:1029F0009D838C831B821A8281E090E0DF91CF91CE
:102A00001F910F91FF90EF90CF90AF9008956D3090
:102A100099F3262FE884F9840E811F814C815D8112
:102A20006A817B81AD84CC840E94FA132C858A81D3
:102A30009B8136E0239F800D911D11249B838A8307
:102A4000DBCFDC01ED91FC910684F785E02D099444
:102A5000AF92BF92CF92DF92EF92FF920F931F93AC
:102A6000CF93DF93EC016B018A017901CA018E508B
:102A70009742029700F5FB0101900020E9F731979A
:102A8000E61BF70B8C8526E0829FC00111248E9FE8
:102A900050018F9FB00C9E9FB00C1124CE010E945C
:102AA00021158A199B090E30174219F597FD0196D9
:102AB0008C01159507951B830A83FD82EC828601A4
:102AC0007801EC18FD08F80161918F01662329F067
:102AD000CE010E94E414892B99F7C701DF91CF91B1
:102AE0001F910F91FF90EF90DF90CF90BF90AF902C
:102AF00008958C0101501109DECFFB0160817181C5
:102B00000C9428152F923F924F925F926F927F9272
:102B10008F929F92AF92BF92CF92DF92EF92FF92ED
:102B20000F931F93CF93DF93CDB7DEB76F970FB699
:102B3000F894DEBF0FBECDBF9D8F8C8F3F8F2E8F41
:102B40001801CE0101962C018BE1D2011D928A95CC
:102B5000E9F7411551056105710549F580E38A8F53
:102B6000D12C66246394712C8E01065E1F4F2D2D8F
:102B700030E0A901460D571DCA0101968E159F052B
:102B80000CF076C0ECE1EE16F1040CF44EC08AE1D4
:102B9000E82EF12CE41AF50A90E080E08E159F05EE
:102BA0000CF04BC0D801CE928D010196F7CFD12CFD
:102BB00077FF09C070956095509541955F4F6F4FB5
:102BC0007F4FDD24D394712C612C8E01055E1F4F45
:102BD0004501BB0CAA08BB08BAE06B167104D9F01A
:102BE000CB01BA01A50194010E94A82CFA01015061
:102BF00011096A30710581059105ACF0695CD80155
:102C00006C93A901BF01BFEF6B1A7B0A141615065E
:102C1000160617060CF3DD2009F4A9CFF8018DE2A2
:102C200082938F01A4CF605DEACFE618F708E21A1D
:102C3000F30AF1E0EF1AF108AFCF8AE190E0821BCE
:102C4000930B861997098E199F09D201A80FB91FF6
:102C5000F2012BE130E0A901481B590BCA019F0189
:102C6000241935092817390740F42D912193F7CFFE
:102C70008AE190E0841B950BE8CF840D951DDC0163
:102C80001C9291014E8D5F8DB2018C8D9D8D0E94A5
:102C900028156F960FB6F894DEBF0FBECDBFDF913B
:102CA000CF911F910F91FF90EF90DF90CF90BF9049
:102CB000AF909F908F907F906F905F904F903F90DC
:102CC0002F90089538E0439FC0011124807E9770B3
:102CD000269526952695822B70E0762F6627662707
:102CE000787F862B972B0895FC0184899589089518
:102CF000FC018689978908959CB59C7F282F2370B5
:102D0000922B9CBD9DB582FB222720F9892F8E7FB7
:102D1000822B8DBD0895CF92DF92EF92FF920F9399
:102D20001F93CF93DF93EC016B01F42E122F0E94BF
:102D3000FE1287E192E099838883FE01E95BFF4FF1
:102D4000F0823196108331968FEF808331968083A5
:102D500031968083319600833196E08281E08E8FB8
:102D6000DAAAC9AA8F2D0F2C000C990BFC01EC5B81
:102D7000F64FE491F0E0EE0FFF1FE55AF64FA591F4
:102D8000B491BCABABABFC01E35DF64F64916DAFAE
:102D9000FE01EE5BFF4F862F809580839E012D5BA9
:102DA0003F4F17FF69C01EAA1DAA1EAEF90110826F
:102DB00018AE1FAA1FAEFE01EC5BFF4F10821AAEC9
:102DC00019AE34971082359610821CAE1BAE349724
:102DD0001082359610828C91682B6C93EDA9FEA918
:102DE00080819EAD892B808361E08F2D0E94C22956
:102DF00061E0812F0E94C22907FD08C061E0802F99
:102E00000E94FE2961E0802F0E94C229E7FC04C0D5
:102E100061E08E2D0E94C2290E94C81280E00E94AB
:102E20007C168CB58F7D8CBD8CB5837F8CBD1E864A
:102E30001F86198E188E86E08C9DF0018D9DF00DF9
:102E40001124EA5CFE4F808191819D8F8C8F2281BD
:102E50003381398B288B848195819B8B8A8B3D8B29
:102E60002C8B9F8B8E8BDF91CF911F910F91FF90B9
:102E7000EF90DF90CF900895812F012E000C990BD9
:102E8000FC01EC5BF64FE491F0E0EE0FFF1FE55A1A
:102E9000F64F459154915EAB4DABFC01E35DF64FAF
:102EA000E491EEAF8E2F8095F901808381CF835B13
:102EB0009F4FFC01808187FD07C0662319F061E008
:102EC0000C94FE2960E0FCCF0895CF92DF92EF9240
:102ED000FF920F931F93CF93DF93FC01868D88237E
:102EE00079F06EBD00000DB407FEFDCF8EB5DF9109
:102EF000CF911F910F91FF90EF90DF90CF900895A9
:102F000088E090E020E88F010B5B1F4F7F0130E4E9
:102F1000E30EF11CAF014A5B5F4F6F01C1E4CC0EC1
:102F2000D11CA1ADB2AD322F3623B9F03C91E701EF
:102F30007881372B3C93A3ADB4AD3C91EA01788105
:102F400037233C93A3ADB4AD3C91E6017881372B98
:102F50003C932695019729F7CACF3C91E8017881E7
:102F60003723E8CF0F931F93CF93DF93EC01EBA9A7
:102F7000FCA980819DAD892B80838E01045B1F4F4E
:102F8000F801808187FD0EC060E00E94FE2962E0AA
:102F900070E080E090E00E94382961E0F8018081D3
:102FA0000E94FE29EBA9FCA98081DE01AE5BBF4F28
:102FB0009C9189238083EDA9FEA9808111969C9123
:102FC0008923808360E0CE010E946517EBA9FCA9EC
:102FD00080819DAD892B8083DF91CF911F910F91CF
:102FE00008959F92AF92BF92CF92DF92EF92FF929D
:102FF0000F931F93CF93DF93EC016B01942EA52EBB
:103000000170B02EEBA9FCA98081DE01AE5BBF4F41
:103010009C91892380832223E9F08A8D9B8D8E01E8
:103020000D5B1F4F892B59F4EDA9FEA98081D801B2
:103030009C918923808360E0CE010E946517EDA9F1
:10304000FEA98081D8019C91892380836BA1CE0148
:103050000E9465177601C92CDA2C1C141D04B4F5E6
:10306000BB2059F1F70105911491EDA9FEA99EAD80
:1030700029A93AA98081892B8083612F2C303105C1
:1030800001F5687FCE010E946517B80183E076954F
:1030900067958A95E1F76C7FCE010E946517602FD6
:1030A000660F660F660FCE010E946517B2E0EB0E49
:1030B000F11CE1E0CE1AD108D0CFD7010D911C91BF
:1030C000D4CFCE010E946517602FEDCFEBA9FCA9EC
:1030D00080819DAD892B8083DF91CF911F910F91CE
:1030E000FF90EF90DF90CF90BF90AF909F900895AA
:1030F000AF92BF92CF92DF92EF92FF920F931F9306
:10310000CF93DF9377FD6DC057FD6BC079016A01E6
:103110005B01EC01E881F9810684F785E02D0995D2
:103120008A159B050CF45DC0E881F9810484F5855E
:10313000E02DCE0109958C159D050CF452C0E88157
:10314000F9810680F781E02D86019501A601B50180
:10315000CE010995EBA9FCA98081DE01AE5BBF4FD2
:103160009C91892380836A8D7B8D6730710561F422
:10317000EDA9FEA980819EAD892B80836F2DCE01A4
:103180000E9465176E2D66C068307105C1F5960105
:1031900093E0359527959A95E1F788899989289F35
:1031A000F001299FF00D389FF00D1124EA0DFB1D51
:1031B000EE56FD4F2081C6010E94722C41E050E086
:1031C000BA0102C0660F771F8A95E2F7CB01EF289C
:1031D00099F0822B8083EBA9FCA980819DAD892B7E
:1031E0008083DF91CF911F910F91FF90EF90DF903F
:1031F000CF90BF90AF90089580958223EBCFEDA93B
:10320000FEA9DE01AD5BBF4F9C9129A93AA980813F
:10321000892380832C30310509F56BA1CE010E94F2
:103220006517EDA9FEA980819EAD892B80836F2D46
:10323000687FCE010E946517B70183E07695679598
:103240008A95E1F76C7FCE010E9465176E2D660F9F
:10325000660F660FCE010E946517BDCF6CA1CE012F
:103260000E9465176BA1CE010E94651781CFCF9395
:10327000DF93FC01868D882359F08FEF8EBD00000F
:103280000DB407FEFDCF2EB5822FDF91CF910895AB
:1032900088E0BF016A5B7F4FAF014F5B5F4FA3AD1B
:1032A000B4AD9C91EB01388193239C93A3ADB4AD55
:1032B0009C91EA013881932B9C93220FA7A9B0AD72
:1032C0009C9137AD932309F02160815041F7DCCF09
:1032D0003F924F925F926F927F928F929F92AF92A6
:1032E000BF92CF92DF92EF92FF920F931F93CF93F3
:1032F000DF93EC01590198010E9D60010F9DD00CE8
:103300001E9DD00C11248701040F151F01501109B7
:10331000260F371F21503109E881F9810680F78196
:10332000E02D09952E0182E4480E511C3E01A3E4D4
:103330006A0E711C1C141D040CF096C0EBA9FCA9AC
:103340008081D2019C9189238083EDA9FEA980818F
:10335000D3019C91892380836EA1CE010E946517C1
:103360006DA1CE010E9465178A8D9B8D892B09F076
:1033700043C075018601CE010E943719CE010E941B
:103380003719CE010E943719CE010E943719CE019C
:103390000E943719CE010E943719CE010E943719B9
:1033A000382ECE010E943719932DF7018193919306
:1033B0007F0101501109F9F6CC0CDD1CAC0CBD1CD1
:1033C0000E891F89015011092C893D89215031092D
:1033D000E881F9810680F781E02D50E040E070E05F
:1033E00060E0CE010995EBA9FCA980819DAD892BF8
:1033F0008083D12CC12C9ECFCE010E94371975013C
:1034000086018FA598A98130910511F5CE010E9402
:103410003719982ECE010E943719882ECE010E94AE
:103420003719E881F9810190F081E02D282F482D8E
:10343000692DCE0109954C01D7018D929D927D0198
:1034400001501109F1F6CC0CDD1CAC0CBD1CCBCF2E
:10345000892B91F7CE010E943719882ECE010E9448
:103460003719982C882EE8CF90E080E0DF91CF913B
:103470001F910F91FF90EF90DF90CF90BF90AF9092
:103480009F908F907F906F905F904F903F900895A6
:10349000FF920F931F93CF93DF93EC01F62E672FCC
:1034A000142F052FEBA9FCA98081DE01AE5BBF4F75
:1034B0009C9189238083EDA9FEA9808111969C911E
:1034C00089238083CE010E9465176F2DCE010E9453
:1034D0006517EDA9FEA980819EAD892B8083602FA1
:1034E000CE010E946517612FCE010E946517EBA9DE
:1034F000FCA980819DAD892B8083DF91CF911F91A5
:103500000F91FF900895AF92BF92CF92DF92EF920A
:10351000FF920F931F93CF93DF93EC01162FB42EDE
:10352000A52E022FEBA9FCA98081DE01AE5BBF4F67
:103530009C91892380838A8D9B8DEDA9FEA99E0194
:103540002D5B3F4F69010897A1F58081D9019C91BE
:1035500089238083612FCE010E946517EB2CFA2C02
:10356000BB24BA94B00E101674F5F70161917F0177
:10357000EDA9FEA980819EAD892B8083CE010E949A
:103580006517BB20A1F08A8D9B8D019781F41F5F89
:10359000EDA9FEA98081D6019C918923808360E0FA
:1035A000CE010E946517612FCE010E9465170B2D79
:1035B000D7CF8081D9019C918923808360E0CE019F
:1035C0000E946517C7CFEBA9FCA980819DAD892B0F
:1035D0008083DF91CF911F910F91FF90EF90DF904B
:1035E000CF90BF90AF9008952F923F924F925F92ED
:1035F0006F927F928F929F92AF92BF92CF92DF9203
:10360000EF92FF920F931F93CF93DF93CDB7DEB767
:1036100028970FB6F894DEBF0FBECDBF7C015B01CB
:103620006A014901DC01D396ED91FC91D497808128
:10363000AE5BBF4F9C9189238083F701828D938D70
:10364000009709F046C1808D918D8230910509F473
:1036500012C18330910509F42AC12A013B01019767
:1036600089F480899189980120953095C094D094EF
:103670003601680E791E2B01840143016501590151
:10368000A80EB91ED701D596ED91FC918081170146
:10369000B3E42B0E311CD1019C918923808360E01F
:1036A000C7010E94651760E5C7010E946517D70131
:1036B000D596ED91FC91D6978081DE969C91892BD1
:1036C00080836B2DC7010E9465176A2DC7010E9478
:1036D0006517D701D596ED91FC918081D1019C9120
:1036E0008923808360E0C7010E94651761E5C701F7
:1036F0000E946517D701D596ED91FC91D6978081F0
:10370000DE969C91892B8083692DC7010E946517E5
:10371000682DC7010E946517D701D596ED91FC91E0
:103720008081D1019C918923808360E0C7010E9440
:10373000651762E5C7010E946517D701D596ED911F
:10374000FC91D6978081DE969C91892B80836D2D8C
:10375000C7010E9465176C2DC7010E946517D7012C
:10376000D596ED91FC918081D1019C918923808334
:1037700060E0C7010E94651763E5C7010E946517F5
:10378000D701D596ED91FC91D6978081DE969C91DC
:10379000892B8083612FC7010E946517602FC701A5
:1037A0000E946517D701D596ED91FC918081D101DA
:1037B0009C918923808360E0C7010E94651760E2C5
:1037C000C7010E946517D701D596ED91FC91D69758
:1037D0008081DE969C91892B8083672DC7010E9492
:1037E0006517662DC7010E946517D701D596ED9123
:1037F000FC918081D1019C918923808360E0C70185
:103800000E94651761E2C7010E946517D701D5962E
:10381000ED91FC91D6978081DE969C91892B8083D7
:10382000652DC7010E946517642DC7010E946517A9
:10383000D701D396ED91FC91D4978081DD969C9130
:10384000892B808328960FB6F894DEBF0FBECDBFBC
:10385000DF91CF911F910F91FF90EF90DF90CF906C
:10386000BF90AF909F908F907F906F905F904F90A0
:103870003F902F90089580899189A9014095509596
:103880004C01861A970AB1E08B1A91082289338974
:10389000B80160957095860100951095020F131F71
:1038A000280134016B01C20ED31E5A01E9CE828970
:1038B0009389209530952C01461A570AB1E04B1A8E
:1038C00051083A014801820156016901C80ED91E0A
:1038D000D9CE8130910509F0D9C005A8F6A9E02D0F
:1038E00080813701B3E46B0E711CD3019C91892355
:1038F000808362E0C7010E946517D701D596ED91DC
:10390000FC91D6978081DE969C91892B80836B2DCC
:10391000C7010E946517D701D596ED91FC91808172
:10392000D3019C918923808363E0C7010E946517BE
:10393000D701D596ED91FC91D6978081DE969C912A
:10394000892B80836A2DC7010E946517D701D59600
:10395000ED91FC918081D3019C918923808366E065
:10396000C7010E946517D701D596ED91FC91D697B6
:103970008081DE969C91892B80836D2DC7010E94EA
:103980006517D701D596ED91FC918081D3019C916B
:103990008923808367E0C7010E946517D701D59608
:1039A000ED91FC91D6978081DE969C91892B808346
:1039B0006C2DC7010E946517D701D596ED91FC913A
:1039C0008081D3019C918923808364E0C7010E9498
:1039D0006517D701D596ED91FC91D6978081DE963B
:1039E0009C91892B8083692DC7010E946517D7019F
:1039F000D596ED91FC918081D3019C9189238083A0
:103A000065E0C7010E946517D701D596ED91FC913D
:103A1000D6978081DE969C91892B8083682DC70183
:103A20000E946517D701D596ED91FC918081D30155
:103A30009C918923808368E0C7010E946517D701A4
:103A4000D596ED91FC91D6978081DE969C91892B3D
:103A50008083612FC7010E946517D701D596ED912C
:103A6000FC918081D3019C918923808369E0C70107
:103A70000E946517D701D596ED91FC91D69780816C
:103A8000DE969C91892B8083602FCFCE8730910565
:103A900009F0ACC0808D918D8130910531F058F0E6
:103AA0008230910541F00397A1F422E0C20ED11CAF
:103AB0000E5F1F4F0EC0C601029698012E5F3F4F4A
:103AC0006501F2E0CF0ED11C84010E5F1F4F49014A
:103AD0005C01D701D596ED91FC9180813701B3E46B
:103AE0006B0E711CD3019C9189238083F701678D34
:103AF000C7010E946517D701D596ED91FC91D69725
:103B00008081DE969C91892B8083682DC7010E945D
:103B10006517D701D596ED91FC91D6978081DE96F9
:103B20009C91892B80836A2DC7010E946517D7015C
:103B3000D596ED91FC918081D3019C91892380835E
:103B4000F70161A1C7010E946517D701D596ED91D4
:103B5000FC91D6978081DE969C91892B8083602F83
:103B6000C7010E946517D701D596ED91FC91D697B4
:103B70008081DE969C91892B80836C2DC7010E94E9
:103B80006517D701D596ED91FC918081D3019C9169
:103B90008923808361E2C7010E946517D701D5960A
:103BA000ED91FC91D6978081DE969C91892B808344
:103BB0006A2DC7010E946517D701D596ED91FC913A
:103BC000D6978081DE969C91892B80836C2DC701CE
:103BD0000E946517D701D596ED91FC918081D301A4
:103BE0009C9189238083F70163A11FCE88309105C2
:103BF00009F428CE678D099769F58685282F30E06E
:103C0000A9014A0D5B1D5D83A80EAE82280D391DEA
:103C10003F83880E88868785282F30E0A9014C0DC8
:103C20005D1D5983C80ECA82200F311F3B83080FC8
:103C30000C8324E0AE014B5F5F4FC7010E94831AE3
:103C400024E0AE014F5F5F4FF70161A1C7010E9401
:103C5000831AEECDBD82AE829F822887D9824A83A5
:103C60001B830C8324E0AE014B5F5F4FC7010E94B2
:103C7000831A24E0AE014F5F5F4FD70191966C919C
:103C8000E5CF0F931F93CF93DF93EC01EBA9FCA932
:103C90008081DE01AE5BBF4F9C9189238083EDA9BB
:103CA000FEA980818E010D5B1F4FD8019C91892355
:103CB000808364E0CE010E946517EDA9FEA9808192
:103CC0009EAD892B80838C899D890197692FCE01B8
:103CD0000E946517EDA9FEA98081D8019C918923D6
:103CE000808365E0CE010E946517EDA9FEA9808161
:103CF0009EAD892B80836C896150CE010E9465172F
:103D0000EDA9FEA98081D8019C918923808368E078
:103D1000CE010E946517EDA9FEA980819EAD892B79
:103D200080838E899F890197692FCE010E94651734
:103D3000EDA9FEA98081D8019C918923808369E047
:103D4000CE010E946517EDA9FEA980819EAD892B49
:103D500080836E896150CE010E946517EBA9FCA992
:103D600080819DAD892B8083DF91CF911F910F9131
:103D700008954F925F926F927F928F929F92AF922F
:103D8000BF92CF92DF92EF92FF920F931F93CF9348
:103D9000DF93EC014A01270137FF05C0620F731F53
:103DA0003195219531097B01E20EF31E5B0177FF0E
:103DB00002C0B12CA12CE881F9810684F785E02DA1
:103DC000CE0109958E159F0544F4E881F98106849A
:103DD000F785E02DCE0109957C016701CA18DB0843
:103DE00017FF05C0800E911E119501951109080D50
:103DF000191D97FE02C0912C812CE881F981048461
:103E0000F585E02DCE0109958017910744F4E881EE
:103E1000F9810484F585E02DCE0109958C013801E6
:103E20006818790801501109970121503109E8817A
:103E3000F9810680F781E02DA401B501CE01099535
:103E4000EBA9FCA98081DE01AE5BBF4F9C91892369
:103E500080838A8D9B8D8830910501F57401C7019F
:103E600088199909861597050CF08AC010E000E0C2
:103E70000C151D057CF4B501600F711FE881F981F7
:103E80000280F381E02D9201A701CE0109950F5F19
:103E90001F4FEECF8FEFE81AF80AE1CF8E010D5BCE
:103EA0001F4F892B59F4EDA9FEA98081D8019C915F
:103EB0008923808360E0CE010E946517EDA9FEA9E9
:103EC0008081D8019C91892380836BA1CE010E94BF
:103ED0006517C614D7042CF0962D872D3601C92EF0
:103EE000D82EF52C052D087FC20123E096958795E5
:103EF0002A95E1F7182F1C7F942C440C440C440C99
:103F00001C141D0434F55301EDA9FEA99EAD29A989
:103F10003AA98081892B80832C303105A1F4602F50
:103F2000CE010E946517612FCE010E946517642D96
:103F3000CE010E946517B1E0AB1AB10829F781E004
:103F4000C81AD108DDCF6F2DCE010E946517692DEB
:103F5000EFCF8A8D9B8D009751F50E891F890150F7
:103F600011092C893D8921503109E881F9810680A8
:103F7000F781E02D50E040E070E060E0CE0109956F
:103F8000EBA9FCA980819DAD892B8083DF91CF9126
:103F90001F910F91FF90EF90DF90CF90BF90AF9067
:103FA0009F908F907F906F905F904F9008950197B2
:103FB00039F7CE010E94411EE3CF0F931F93CF9399
:103FC000DF93EC01062F672F142FEBA9FCA980814A
:103FD000DE01AE5BBF4F9C9189238083EDA9FEA9D2
:103FE000808111969C9189238083CE010E94651760
:103FF000602FCE010E94651761E070E080E090E0E4
:104000000E943829CE010E943719082FCE010E9444
:104010003719115017FFF6CFEBA9FCA990812DADF0
:10402000922B9083902FDF91CF911F910F91089544
:104030000F931F93CF93DF9300D01F92CDB7DEB7BE
:104040008C0140E064E070E00E94DD1F892B31F5B7
:1040500041E064E070E0C8010E94DD1F81159048D6
:10406000E9F48091D9019091DA01A091DB01898373
:104070009A83AB8323E0AE014F5F5F4F69EBC801CA
:104080000E94831A40E060ED70E0C8010E94DD1FCD
:1040900041E060ED70E0C8010E94DD1F41E063ED8A
:1040A00070E0C8010E94DD1F813423E9920771F09E
:1040B000863824E9920751F0883824E9920731F0D4
:1040C00040E070E060E0C8010E94DD1F0F900F909B
:1040D0000F90DF91CF911F910F910895CF92DF92B2
:1040E000EF92FF920F931F93CF93DF9300D000D0F6
:1040F00000D0CDB7DEB78C017901FC01228D338D64
:1041000082899389861B970B841B950B2930310577
:1041100009F40496EE27FF27E41BF50B6B01EE155F
:10412000FF0554F5E416F5063CF5CE0CDF1CF7FE52
:1041300002C0C40ED51E2115310509F5F80167A18D
:1041400070A543E050E0C8010E94481AF80161A53B
:1041500072A5A601C8010E94481A26960FB6F894C7
:10416000DEBF0FBECDBFDF91CF911F910F91FF90AA
:10417000EF90DF90CF900895F12CE12CDCCF273029
:10418000310521F4F80167A170A5E3CF283031058E
:1041900021F379836A835B834C839D838E8326E03E
:1041A000AE014F5F5F4FF80167A1C8010E94831AFB
:1041B000D982CA8222E0AE014F5F5F4FF80161A54C
:1041C000C8010E94831AF801828D938D019771F4C2
:1041D00088E0EF2809F480E0898321E0AE014F5F99
:1041E0005F4F61E0C8010E94831AB7CFEF2809F042
:1041F000B4CF20E050E040E063E1F4CFCF92DF9213
:10420000EF92FF920F931F93CF93DF93EC01862FD2
:10421000837090E0998F888F262F217060FF73C084
:104220008A899B899D8B8C8B222309F46FC0888996
:1042300099899F8B8E8BEBA9FCA98081DE01AE5BF7
:10424000BF4F9C91892380832A8D3B8D2115310599
:1042500009F06AC0888D998D8130910509F459C0A3
:1042600008F45FC08230910509F456C0039709F441
:1042700055C0EDA9FEA98081DE01AD5BBF4F9C91C9
:10428000892380836CA5CE010E9465176BA5CE01A2
:104290000E946517EDA9FEA980819EAD892B8083C0
:1042A00060E1CE010E9465176C2DCE010E9465175A
:1042B0000E891F89015011092C893D89215031092E
:1042C000E881F9810680F781E02D50E040E070E060
:1042D00060E0CE0109954A895B8930E020E070E01A
:1042E00060E0CE010E946E20EBA9FCA980819DAD0B
:1042F000892B8083DF91CF911F910F91FF90EF90D9
:10430000DF90CF900895888999898CCF8A899B897D
:1043100090CF08E2C02EADCFC12CABCF18E1C12E9B
:10432000A8CFB0E3CB2EA5CF2630310559F5888D27
:10433000998D81309105D9F010F182309105D1F03D
:104340000397D1F0EDA9FEA98081DE01AD5BBF4FDF
:104350009C91892380836BA5CE010E946517EDA9EE
:10436000FEA980819EAD892B80836D2D9ECFA0EA12
:10437000DA2EE8CFD12CE6CFF0E6DF2EE3CFE0ED6A
:10438000DE2EE0CF29303105E1F5888D998D813021
:10439000910511F1D0F08230910529F1039751F187
:1043A000EDA9FEA98081DE01AD5BBF4F9C91892301
:1043B00080836BA5CE010E946517EDA9FEA98081BF
:1043C0009EAD892B80836E2D70CF82E08E8783E037
:1043D0008F8778EDE72EE4CF83E08E8782E08F87AA
:1043E00068EAE62EDDCF82E08E8781E08F8758E095
:1043F000E52ED6CF81E08E8782E08F8748E6E42ED7
:10440000CFCF2730310509F083C0888D998D813059
:10441000910541F008F441C082309105F1F1039714
:1044200009F046CFEDA9FEA980818E010D5B1F4FDB
:10443000D8019C918923808360E0CE010E9465179A
:1044400061E0CE010E946517EDA9FEA980819EADB5
:10445000892B808362E2CE010E94651763E8CE015A
:104460000E946517EDA9FEA98081D8019C9189233E
:10447000808360E0CE010E94651763E0CE010E9458
:104480006517EDA9FEA980819EAD892B808368E622
:10449000CE010E94651768E308CFEDA9FEA98081CF
:1044A0008E010D5B1F4FD8019C918923808360E0B2
:1044B000CE010E94651761E0CE010E946517EDA94B
:1044C000FEA980819EAD892B808361E2CE010E948E
:1044D000651763E8CE010E946517EDA9FEA98081EA
:1044E000D8019C918923808360E0CE010E946517EA
:1044F00063E0CE010E946517EDA9FEA980819EAD03
:10450000892B808368E6CE010E94651760E3CDCEDB
:104510002830310509F4EECE888D998DEDA9FEA9DC
:10452000DE01AD5BBF4F2530310529F581309105A6
:10453000B1F0F0F082309105A9F00397B1F08081DD
:104540009C91892380836BA5CE010E946517EDA9FC
:10455000FEA980819EAD892B80836F2DA6CE38E782
:10456000F32EEDCF28ECF22EEACF98EAF92EE7CF22
:1045700088E0F82EE4CF2A30310509F58130910525
:10458000B1F0D8F082309105A1F00397A1F08081BD
:104590009C91892380836BA5CE010E946517EDA9AC
:1045A000FEA980819EAD892B8083602F7ECE08EA94
:1045B000EECF08E1ECCF08E7EACF08ECE8CF813096
:1045C0009105B1F0D8F082309105A1F00397A1F0E8
:1045D00080819C91892380836BA5CE010E94651701
:1045E000EDA9FEA980819EAD892B8083612F5DCED0
:1045F00018E2EECF18E9ECCF18EFEACF18E4E8CFD5
:10460000FC01808D0895FF920F931F93CF93DF934A
:10461000EC01062FEBA9FCA98081DE01AE5BBF4F48
:104620009C91892380831DA52A8D3B8DEDA9FEA930
:10463000119621153105F9F480819C91892380839D
:1046400061E6CE010E946517EDA9FEA980819EADAD
:10465000892B8083612F6027CE010E946517EBA90B
:10466000FCA980819DAD892B8083DF91CF911F9123
:104670000F91FF9008958C912130310591F4908134
:104680008923808361E0CE010E946517EDA9FEA910
:1046900080819EAD892B808368E01013DDCF6AE0B6
:1046A000DBCF2730310569F5288D398D2D7F211518
:1046B0003105E9F431E2F32E161302C0FF24F3941E
:1046C00090818923808360E0CE010E94651761E0BC
:1046D000CE010E946517EDA9FEA980819EAD892BB0
:1046E00080836F2DCE010E94651763E8B5CF21301E
:1046F000310531F722E2F22E1613E2CF92E0F92EC5
:10470000DFCF9081892380832830310529F466EA40
:104710001013A2CF67EAA0CF61E210139DCF60E231
:104720009BCFBF92CF92DF92EF92FF920F931F9396
:10473000CF93DF93CDB7DEB768970FB6F894DEBF9F
:104740000FBECDBF6C018B017A011E141F045CF5F6
:10475000F80164913196B4900E5F1F4F6F3771F07E
:10476000DE01119690E080E0AD018B15A8F4F80110
:10477000E80FF91FE491ED930196F7CF6B2D70E0F0
:1047800090E080E00E943829B12C6B2D70E06E5FC4
:104790007F4FE61AF70AD9CF0B0D111D2B2DC6013D
:1047A0000E94831AF2CF68960FB6F894DEBF0FBE50
:1047B000CDBFDF91CF911F910F91FF90EF90DF90D0
:1047C000CF90BF900895EF92FF920F931F93CF93D6
:1047D000DF937C01EB018A0110161106BCF4FE0187
:1047E00065917491FE0132962496459154916F3FE4
:1047F000760741F4BA0190E080E00E943829045025
:104800001109EACFC7010E94481AF9CFDF91CF9171
:104810001F910F91FF90EF9008950F931F93CF93E7
:10482000DF93EC018B010E94B21768EC70E080E02E
:1048300090E00E943829053283E9180709F4B2C0D4
:1048400008F047C0053785E7180709F488C070F4F9
:10485000063081E1180709F496C10338124109F4C2
:1048600067C18FEF90E09B8F8A8FC1C0053387E7C8
:10487000180709F429C10039104999F783E090E03D
:104880009B8F8A8F8AE290E098A38F8F8BE290E0D3
:104890009AA389A38CE290E09CA38BA38EE290E084
:1048A0009EA38DA383E390E098A78FA387E390E076
:1048B0009AA789A786E390E09CA78BA781E090E068
:1048C0009EA78DA798AB8FA746E450E06AE877E0F3
:1048D00039C0063884E9180709F495C0B8F50832DC
:1048E00083E9180709F45EC00134134909F0B9CF10
:1048F00082E090E09B8F8A8F8AE290E098A38F8F6E
:104900008BE290E09AA389A38CE290E09CA38BA316
:104910008EE290E09EA38DA383E390E098A78FA3FF
:1049200087E390E09AA789A786E390E09CA78BA7EE
:104930001EA61DA681E090E098AB8FA74AE750E045
:1049400060ED77E0CE010E94912351C0083884E9E0
:10495000180709F481C00539154909F082CF81E0B3
:1049600090E09B8F8A8F18A21F8E1AA219A222E2B2
:1049700030E03CA32BA33EA32DA32EE030E038A7CC
:104980002FA324E130E03AA729A726E130E03CA795
:104990002BA79EA78DA798AB8FA74FE750E06BE0A2
:1049A00077E0D0CF1B8E1A8E18A21F8E1AA219A2E2
:1049B00082E290E09CA38BA39EA38DA381E690E06E
:1049C00098A78FA38AE690E09AA789A783E090E052
:1049D0009CA78BA781E090E09EA78DA718AA1FA691
:1049E0004CEC50E06AE478E0CE010E94E323688D4D
:1049F000CE010E94FE2060E0CE01DF91CF911F9199
:104A00000F910C94032385E090E09B8F8A8F8AE2BC
:104A100090E098A38F8F8BE290E09AA389A38CE219
:104A200090E09CA38BA38EE290E09EA38DA383E3F2
:104A300090E098A78FA387E390E09AA789A786E3E1
:104A400090E09CA78BA71EA61DA618AA1FA645E549
:104A500050E066EB76E076CF8AE090E09B8F8A8F1D
:104A600089A99AA943E050E063EB76E00C9711F036
:104A700060EB76E0CE010E9491238AE290E098A359
:104A80008F8F8BE290E09AA389A38CE290E09CA3A5
:104A90008BA38EE290E09EA38DA383E390E098A782
:104AA0008FA387E390E09AA789A786E390E09CA76D
:104AB0008BA71EA61DA681E090E098AB8FA742E5CC
:104AC00050E06EE576E03ECF8A899B89803A910579
:104AD00049F586E090E09B8F8A8F8AE290E098A368
:104AE0008F8F8BE290E09AA389A38CE290E09CA345
:104AF0008BA38EE290E09EA38DA383E390E098A722
:104B00008FA387E390E09AA789A786E390E09CA70C
:104B10008BA71EA61DA618AA1FA64FE550E06FEF93
:104B200075E010CF80389105C1F689E090E0D3CFD1
:104B300087E090E09B8F8A8F85E490E098A38F8F29
:104B400084E490E09AA389A382E290E09CA38BA3E3
:104B50008EE290E09EA38DA381E490E098A78FA3BE
:104B600082E490E09AA789A783E090E09CA78BA7B6
:104B700081E090E09EA78DA718AA1FA640E650E00E
:104B80006FE975E031CF88E090E09B8F8A8F80E1FC
:104B900090E098A38F8F80EB90E09AA389A31CA24A
:104BA0001BA21EA21DA218A61FA21AA619A61CA609
:104BB0001BA681E090E09EA78DA718AA1FA64CE334
:104BC00050E063E675E0BECECF93DF93EC010E9428
:104BD000B21761E0CE010E9457178C8D9D8D019612
:104BE00029F4CE010E9418209D8F8C8F6C8D7D8DB5
:104BF000CE01DF91CF910C940D24FC01918D228D7B
:104C0000892F90E0805C9F4F821B91098F739927B9
:104C10000895FC01918D828D981731F0828DE80FF7
:104C2000F11D858D90E008958FEF9FEF0895FC01B1
:104C3000918D828D981761F0A28DAE0FBF2FB11D9F
:104C40005D968C91928D9F5F9F73928F90E00895F7
:104C50008FEF9FEF0895FC01538D448D252F30E099
:104C6000842F90E0821B930B541710F0CF96089579
:104C70000197089581E897E2892B49F080E090E060
:104C8000892B29F00E94812781110C94000008953E
:104C9000FC01A48DA80FB92FB11DA35ABF4F2C91B1
:104CA000848D90E001968F739927848FA689B789A8
:104CB0002C93A089B1898C91837080648C93938D9F
:104CC000848D981306C00288F389E02D80818F7D42
:104CD00080830895CF93DF93EC01888D8823B9F00A
:104CE000AA89BB89E889F9898C9185FD03C08081F7
:104CF00086FD0DC00FB607FCF7CF8C9185FFF2CF74
:104D0000808185FFEDCFCE010E944826E9CFDF915B
:104D1000CF910895EF92FF920F931F93CF93DF935C
:104D2000EC0181E0888F9B8D8C8D98131AC0E889E7
:104D3000F989808185FF15C09FB7F894EE89FF89B6
:104D40006083E889F98980818370806480839FBF54
:104D500081E090E0DF91CF911F910F91FF90EF9054
:104D60000895F62E0B8D10E00F5F1F4F0F73112764
:104D7000E02E8C8D8E110CC00FB607FCFACFE8899F
:104D8000F989808185FFF5CFCE010E944826F1CFB9
:104D9000EB8DEC0FFD2FF11DE35AFF4FF0829FB713
:104DA000F8940B8FEA89FB8980818062CFCFCF9204
:104DB000DF92EF92FF921F93CF93DF93EC016A0192
:104DC0007B01122F60E874E88EE190E0A701960164
:104DD0000E94862C21503109410951095695479569
:104DE00037952795E889F98982E08083211580E14C
:104DF000380798F0E889F989108260E472E48FE05E
:104E000090E0A70196010E94862C215031094109AA
:104E100051095695479537952795EC85FD85308343
:104E2000EE85FF852083188EEC89FD891083EA8941
:104E3000FB89808188698083EA89FB8980818F7DF5
:104E40008083DF91CF911F91FF90EF90DF90CF9003
:104E500008951F920F920FB60F9211242F938F93E4
:104E60009F93EF93FF93E091A206F091A3068081B8
:104E7000E091A806F091A90682FD1BC09081809167
:104E8000AB068F5F8F732091AC06821741F0E091E3
:104E9000AB06F0E0EE56F94F958F8093AB06FF918D
:104EA000EF919F918F912F910F900FBE0F901F90B8
:104EB00018958081F4CF1F920F920FB60F92112494
:104EC0002F933F934F935F936F937F938F939F9312
:104ED000AF93BF93EF93FF9382E996E00E94482639
:104EE000FF91EF91BF91AF919F918F917F916F91C2
:104EF0005F914F913F912F910F900FBE0F901F9098
:104F0000189582E996E00E94FD2521E0892B09F49D
:104F100020E0822F0895E2E9F6E01382128288EE03
:104F200093E0A0E0B0E084839583A683B7838BE20F
:104F300092E09183808385EC90E09587848784EC70
:104F400090E09787868780EC90E0918B808B81EC56
:104F500090E0938B828B82EC90E0958B848B86EC37
:104F600090E0978B868B118E128E138E148E08957F
:104F7000AF92BF92CF92DF92EF92FF920F931F9367
:104F8000CF93DF936C017B018B01040F151FEB01A5
:104F90005E01AE18BF08C017D10759F06991D6015C
:104FA000ED91FC910190F081E02DC6010995892BCE
:104FB00079F7C501DF91CF911F910F91FF90EF908D
:104FC000DF90CF90BF90AF900895FB01019000203B
:104FD000E9F73197AF01461B570BDC01ED91FC91CE
:104FE0000280F381E02D0994DC01ED91FC910190A8
:104FF000F081E02D099469E372E00C94E5270F93AA
:105000001F93CF93DF938C01D0E0C0E06115710551
:1050100019F00E94E527EC01C8010E94FB278C0FC4
:105020009D1FDF91CF911F910F9108950F931F93B3
:10503000CF93DF93EC010E94F4278C01CE010E94F4
:10504000FB27800F911FDF91CF911F910F91089542
:10505000FC0180819181009711F00C949F2D08959F
:10506000CF93DF93EC0188819981009711F00E9422
:105070009F2D198218821D821C821B821A82DF9149
:10508000CF9108950F931F93CF93DF93EC018B0182
:105090006F5F7F4F888199810E94282E009751F081
:1050A000998388831B830A8381E0DF91CF911F91CD
:1050B0000F91089580E0F9CFCF93DF93EC018881C1
:1050C0009981892B49F08A819B818617970720F067
:1050D00081E0DF91CF910895CE010E94422888237C
:1050E000C1F38C819D81892B99F7E881F981108228
:1050F000EFCFEF92FF920F931F93CF93DF93EC01CB
:105100007B018A01BA010E945C2881110BC0CE018B
:105110000E943028CE01DF91CF911F910F91FF9017
:10512000EF9008951D830C83B701888199810E94B7
:10513000F32EF0CFFC0111821082138212821582AD
:1051400014826115710551F0FB0101900020E9F70F
:105150003197AF01461B570B0C94792808950E9494
:10516000E52E0E94AF2808950E9471290E94B3285D
:105170000E94CD0FCAE3D6E20E9401102097E1F30E
:105180000E943A26F9CF009711F481E090E00C9448
:10519000032D1F920F920FB60F9211242F933F935E
:1051A0008F939F93AF93BF9380913407909135076E
:1051B000A0913607B09137073091330726E0230FCF
:1051C0002D3768F129E8230F0396A11DB11D209307
:1051D00033078093340790933507A0933607B09335
:1051E000370780912F0790913007A0913107B09138
:1051F00032070196A11DB11D80932F0790933007B0
:10520000A0933107B0933207BF91AF919F918F91D7
:105210003F912F910F900FBE0F901F9018950296FF
:10522000A11DB11DD4CF3FB7F89480912F07909165
:105230003007A0913107B091320726B5A89B05C071
:105240002F3F19F00196A11DB11D3FBFBA2FA92F05
:10525000982F8827BC01CD01620F711D811D911D02
:1052600043E0660F771F881F991F4A95D1F708956D
:105270008F929F92AF92BF92CF92DF92EF92FF9266
:105280006B017C010E9413294B015C01C114D10404
:10529000E104F104E9F00E942C2A0E941329681904
:1052A00079098A099B09683E73408105910570F36D
:1052B00021E0C21AD108E108F10888EE880E83E0E7
:1052C000981EA11CB11CC114D104E104F10429F7FA
:1052D000FF90EF90DF90CF90BF90AF909F908F9016
:1052E0000895789484B5836084BD85B5836085BD59
:1052F000EEE6F0E0808181608083E1E8F0E082E02A
:105300008083808181608083E0E8F0E0808181603B
:105310008083E1EBF0E0808184608083E0EBF0E06B
:1053200080818160808386E880937A001092C1003A
:105330000895843081F028F48230E9F08330F9F068
:105340000895883071F0893091F08530B9F48091FA
:1053500080008F7D03C0809180008F7780938000D4
:1053600008958091B0008F778093B0000895809168
:10537000B0008F7DF9CF84B58F7784BD089584B553
:105380008F7DFBCFCF93DF9390E0FC01E35DF64F81
:1053900024918C5B964FFC0184918823C9F090E0A6
:1053A000880F991FFC01EB59F64FA591B491FC01B0
:1053B000E55AF64FC591D49161110DC09FB7F8948D
:1053C0008C91209582238C938881282328839FBFEA
:1053D000DF91CF910895623051F49FB7F8943C91DA
:1053E000822F809583238C93E8812E2BEFCF8FB76C
:1053F000F894EC912E2B2C938FBFEACF1F93CF9371
:10540000DF93282F30E0F901EA5EF64F8491F9012D
:10541000E35DF64FD491F901EC5BF64FC491CC23D8
:10542000A9F0162F81110E949929EC2FF0E0EE0FC0
:10543000FF1FE55AF64FA591B4918FB7F894EC9100
:10544000111108C0D095DE23DC938FBFDF91CF917F
:105450001F910895DE2BF8CF08955058BB27AA2737
:105460000E94452A0C94BF2B0E94B12B38F00E9459
:10547000B82B20F039F49F3F19F426F40C94AE2B8E
:105480000EF4E095E7FB0C94A82BE92F0E94D02B9B
:1054900058F3BA17620773078407950720F079F469
:1054A000A6F50C94F22B0EF4E0950B2EBA2FA02D3E
:1054B0000B01B90190010C01CA01A0011124FF27C1
:1054C000591B99F0593F50F4503E68F11A16F040BC
:1054D000A22F232F342F4427585FF3CF46953795BB
:1054E0002795A795F0405395C9F77EF41F16BA0B80
:1054F000620B730B840BBAF09150A1F0FF0FBB1F2E
:10550000661F771F881FC2F70EC0BA0F621F731F76
:10551000841F48F4879577956795B795F7959E3FD3
:1055200008F0B0CF9395880F08F09927EE0F979564
:10553000879508950E94842B08F481E008950E94C5
:10554000B32A0C94BF2B0E94B82B58F00E94B12BA9
:1055500040F029F45F3F29F00C94A82B51110C94D2
:10556000F32B0C94AE2B0E94D02B68F39923B1F34C
:10557000552391F3951B550BBB27AA276217730779
:10558000840738F09F5F5F4F220F331F441FAA1F0D
:10559000A9F335D00E2E3AF0E0E832D091505040C9
:1055A000E695001CCAF72BD0FE2F29D0660F771F77
:1055B000881FBB1F261737074807AB07B0E809F05D
:1055C000BB0B802DBF01FF2793585F4F3AF09E3FE2
:1055D000510578F00C94A82B0C94F32B5F3FE4F367
:1055E000983ED4F3869577956795B795F7959F5F25
:1055F000C9F7880F911D9695879597F90895E1E071
:10560000660F771F881FBB1F621773078407BA07CF
:1056100020F0621B730B840BBA0BEE1F88F7E0952A
:1056200008950E94182B6894B1110C94F32B0895DF
:105630000E94D82B88F09F5798F0B92F9927B7511F
:10564000B0F0E1F0660F771F881F991F1AF0BA9526
:10565000C9F714C0B13091F00E94F22BB1E0089567
:105660000C94F22B672F782F8827B85F39F0B93F59
:10567000CCF3869577956795B395D9F73EF49095D9
:105680008095709561957F4F8F4F9F4F0895E89457
:1056900009C097FB3EF490958095709561957F4F7A
:1056A0008F4F9F4F9923A9F0F92F96E9BB27939528
:1056B000F695879577956795B795F111F8CFFAF438
:1056C000BB0F11F460FF1BC06F5F7F4F8F4F9F4F69
:1056D00016C0882311F096E911C0772321F09EE8C7
:1056E000872F762F05C0662371F096E8862F70E02D
:1056F00060E02AF09A95660F771F881FDAF7880F07
:105700009695879597F90895990F0008550FAA0B5C
:10571000E0E8FEEF16161706E807F907C0F01216C4
:105720001306E407F50798F0621B730B840B950BC7
:1057300039F40A2661F0232B242B252B21F408951C
:105740000A2609F4A140A6958FEF811D811D0895B9
:1057500097F99F6780E870E060E008959FEF80EC24
:10576000089500240A9416161706180609060895C7
:1057700000240A9412161306140605060895092E2D
:105780000394000C11F4882352F0BB0F40F4BF2B9C
:1057900011F460FF04C06F5F7F4F8F4F9F4F0895DC
:1057A00057FD9058440F551F59F05F3F71F04795D2
:1057B000880F97FB991F61F09F3F79F087950895B7
:1057C000121613061406551FF2CF4695F1DF08C0D6
:1057D000161617061806991FF1CF869571056105F3
:1057E00008940895E894BB2766277727CB0197F99B
:1057F00008950E940C2C0C94BF2B0E94B12B38F002
:105800000E94B82B20F0952311F00C94A82B0C9437
:10581000AE2B11240C94F32B0E94D02B70F3959F88
:10582000C1F3950F50E0551F629FF001729FBB2797
:10583000F00DB11D639FAA27F00DB11DAA1F649F33
:105840006627B00DA11D661F829F2227B00DA11DE6
:10585000621F739FB00DA11D621F839FA00D611D6C
:10586000221F749F3327A00D611D231F849F600D8D
:10587000211D822F762F6A2F11249F5750409AF0B6
:10588000F1F088234AF0EE0FFF1FBB1F661F771F42
:10589000881F91505040A9F79E3F510580F00C940D
:1058A000A82B0C94F32B5F3FE4F3983ED4F386953A
:1058B00077956795B795F795E7959F5FC1F7FE2BAD
:1058C000880F911D9695879597F90895991B79E012
:1058D00004C0991F961708F0961B881F7A95C9F780
:1058E0008095089597FB072E16F4009407D077FD56
:1058F00009D00E94DE2C07FC05D03EF490958195DE
:105900009F4F0895709561957F4F0895A1E21A2EDB
:10591000AA1BBB1BFD010DC0AA1FBB1FEE1FFF1F53
:10592000A217B307E407F50720F0A21BB30BE40BA3
:10593000F50B661F771F881F991F1A9469F76095EA
:105940007095809590959B01AC01BD01CF010895A4
:10595000052E97FB1EF400940E94BF2C57FD07D024
:105960000E94862C07FC03D04EF40C94BF2C50955B
:105970004095309521953F4F4F4F5F4F089590953B
:105980008095709561957F4F8F4F9F4F0895A29F8F
:10599000B001B39FC001A39F700D811D1124911D03
:1059A000B29F700D811D1124911D0895B7FF0C94B5
:1059B000F82C0E94F82C821B930B0895AA1BBB1B8A
:1059C00051E107C0AA1FBB1FA617B70710F0A61BFF
:1059D000B70B881F991F5A95A9F780959095BC0120
:1059E000CD010895EE0FFF1F0590F491E02D09946D
:1059F0000E94C72CA59F900DB49F900DA49F800D71
:105A0000911D112408950F931F93CF93DF9382303C
:105A1000910510F482E090E0E0913A07F0913B07A5
:105A200030E020E0B0E0A0E0309799F42115310596
:105A300009F44AC0281B390B24303105D8F58A8176
:105A40009B816115710589F1FB0193838283FE01BE
:105A500011C0408151810281138148175907E0F03C
:105A60004817590799F4109761F012960C93129702
:105A700013961C933296CF01DF91CF911F910F9116
:105A8000089500933A0710933B07F4CF2115310591
:105A900051F04217530738F0A901DB019A01BD010B
:105AA000DF01F801C1CFEF01F9CF90933B0780935D
:105AB0003A07CDCFFE01E20FF31F8193919322505D
:105AC000310939832883D7CF20913807309139079E
:105AD000232B41F4209102013091030130933907C7
