:100000000C94FA040C9422050C9422050C942205FD
:100010000C9422050C9422050C9422050C942205C4
:100020000C9422050C9422050C9422050C94342582
:100030000C9422050C9422050C9422050C942205A4
:100040000C9492240C9422050C9402250C94DC242C
:100050000C9422050C9422050C9422050C94220584
:100060000C9422050C94220508000000BE9224493D
:10007000123EABAAAA2ABECDCCCC4C3E00000080DA
:10008000BEABAAAAAA3E00000000BF000000803F4D
:100090000000000000084178D3BB4387D1133D190D
:1000A0000E3CC3BD4282AD2B3E68EC8276BED98F3A
:1000B000E1A93E4C80EFFFBE01C4FF7F3F0000007E
:1000C000000007634236B79BD8A71A39685618AEA6
:1000D000BAAB558C1D3CB7CC5763BD6DEDFD753E7D
:1000E000F6177231BF000000803F8D001000AE0097
:1000F0000200100040008100CF00A100C800A6004F
:10010000A8003F00D3000000D5008000D900F10016
:10011000DA001200DB004000200002008D00140015
:10012000A400A600AF0010008E2F11000C000700E5
:100130002100280006002800050027007F0529006F
:10014000A18900000100FFFF64002900B080FFFFCB
:100150001E002900FEFF07002302FFFF1E0007000C
:10016000330201008321030030682F00FFFF2C00C1
:10017000008027007005020000030B000C581200DD
:1001800009061300003111007F78B103053C3CB231
:1001900003053C3CB306053C3C053C3CB40103C0B4
:1001A00003280804C101C0C2020D00C3028D2AC485
:1001B000028DEEC5011A170105360108E010032271
:1001C000070A2E30252A28262E3A00010313E110B3
:1001D0000416060D2D26232727252D3B0001041389
:1001E0003A01052900F704A9512C82C0021109C166
:1001F0000141C503000A80B102B011B40102B60288
:100200000222B701C6BE020004E90100360108E07F
:100210000F00071009170B41894B0A0C0E181B0F12
:10022000E10F00171A040E062F4543020A09323661
:100230000F11007F7829003A01553A0166F704A9A9
:10024000512C82C0021109C10141C503000A80B1CD
:1002500002B011B40102B6020222B701C6BE02000A
:1002600004E901003601083A0155E00F00071009C2
:10027000170B41894B0A0C0E181B0FE10F00171AC0
:10028000040E062F4543020A0932360F11007F780B
:1002900029002E018929018F2B0102E20100E401CE
:1002A00001E50110E60101E70110E80170F201002B
:1002B000EA0100EB0120EC013CED01C8E90138F155
:1002C00001011B011A1A010124016125015C2301AE
:1002D000881801361901011F01887F051F01807FE1
:1002E000051F01907F051F01D47F05170105360109
:1002F000002801387F2828013C0201000301000486
:1003000001000501EF0601000701000801010901D4
:100310003F0100B903FF83577FFAB30400000606CC
:10032000B60125B00168CC0105B10600151C1C837F
:10033000AAC0065050013C1E08B4070240002A2AF9
:100340000D783A01553601C0350100440200021112
:10035000007F9629007F3201007F322800F60301DA
:100360000100CF03008130ED0464031281E80385AE
:100370001078CB05392C003402F70120EA02000086
:10038000B00100B40100C00121C10111C5023F3C10
:10039000C701B53601883A0155B102001B36014844
:1003A000F20100260101E00F0F26240B0E0954A8CC
:1003B000460C17090F0700E10F00191B0410072A4C
:1003C000473903060630380FB7010711007F962919
:1003D0000000000100FFFF320001000001020000E8
:1003E00007030030100400000008000202090000AA
:1003F000000A0000000C0000000D0000000F0000CB
:10040000001000000011000700120000001300009F
:1004100000FFFFC8001000901611002702FFFF32F6
:100420000012001A00FFFF32001300001829002AF2
:1004300000FFFF32003000000031000000320000F9
:1004400000350006023600080837000700380001B2
:1004500002390000003C0000003D000000200000C8
:100460000021000000500000005100EF0052000089
:100470000053003F01600000A7610003006A000014
:10048000009000100092000000930003009500000F
:1004900011970000009800000007003301000000E1
:1004A000090003020000040508000000000000002D
:1004B0000000000000000000003E5B4F5B3E3E6B12
:1004C0004F6B3E1C3E7C3E1C183C7E3C181C577DEE
:1004D000571C1C5E7F5E1C00183C1800FFE7C3E73A
:1004E000FF0018241800FFE7DBE7FF30483A060E4C
:1004F0002629792926407F050507407F05253F5A93
:100500003CE73C5A7F3E1C1C08081C1C3E7F142202
:100510007F22145F5F005F5F06097F017F006689AD
:10052000956A606060606094A2FFA29408047E04F3
:100530000810207E201008082A1C08081C2A080819
:100540001E101010100C1E0C1E0C30383E383006D9
:100550000E3E0E06000000000000005F00000007D5
:10056000000700147F147F14242A7F2A1223130803
:10057000646236495620500008070300001C2241DF
:10058000000041221C002A1C7F1C2A08083E080883
:100590000080703000080808080800006060002033
:1005A000100804023E5149453E00427F4000724916
:1005B0004949462141494D331814127F10274545BA
:1005C00045393C4A494931412111090736494949D0
:1005D00036464949291E000014000000403400003E
:1005E00000081422411414141414004122140802A7
:1005F000015909063E415D594E7C1211127C7F491A
:100600004949363E414141227F4141413E7F49496E
:1006100049417F090909013E414151737F0808089A
:100620007F00417F41002040413F017F081422416B
:100630007F404040407F021C027F7F0408107F3EC5
:100640004141413E7F090909063E4151215E7F0932
:10065000192946264949493203017F01033F404099
:10066000403F1F2040201F3F4038403F6314081484
:100670006303047804036159494D43007F414141BC
:100680000204081020004141417F0402010204409D
:1006900040404040000307080020545478407F2821
:1006A0004444383844444428384444287F38545417
:1006B000541800087E090218A4A49C787F0804043A
:1006C0007800447D40002040403D007F10284400D9
:1006D00000417F40007C047804787C08040478386A
:1006E00044444438FC1824241818242418FC7C089A
:1006F000040408485454542404043F44243C404017
:10070000207C1C2040201C3C4030403C44281028C9
:10071000444C9090907C4464544C44000836410012
:100720000000770000004136080002010204023C8C
:100730002623263C1EA1A161123A4040207A38545B
:1007400054555921555579412154547841215554D6
:10075000784020545579400C1E5272123955555527
:1007600059395454545939555454580000457C4112
:100770000002457D420001457C40F0292429F0F02B
:10078000282528F07C545545002054547C547C0A7C
:10079000097F4932494949323248484832324A4849
:1007A00048303A4141217A3A42402078009DA0A049
:1007B0007D39444444393D4040403D3C24FF24249D
:1007C000487E4943662B2FFC2F2BFF0929F620C0BA
:1007D000887E090320545479410000447D4130480B
:1007E000484A32384040227A007A0A0A727D0D194E
:1007F000317D2629292F28262929292630484D40B0
:1008000020380808080808080808382F10C8ACBAAB
:100810002F102834FA00007B000008142A1422222A
:10082000142A1408AA005500AAAA55AA55AA00001D
:1008300000FF00101010FF00141414FF001010FF30
:1008400000FF1010F010F0141414FC001414F70042
:10085000FF0000FF00FF1414F404FC141417101F11
:1008600010101F101F1414141F00101010F000009F
:1008700000001F101010101F10101010F0100000BA
:1008800000FF101010101010101010FF10000000CA
:10089000FF140000FF00FF00001F10170000FC0401
:1008A000F414141710171414F404F40000FF00F7E4
:1008B00014141414141414F700F714141417141047
:1008C000101F101F141414F4141010F010F0000076
:1008D0001F101F0000001F14000000FC140000F097
:1008E00010F01010FF10FF141414FF141010101F3C
:1008F00000000000F010FFFFFFFFFFF0F0F0F0F04D
:10090000FFFFFF0000000000FFFF0F0F0F0F0F3869
:10091000444438447C2A2A3E147E02020606027EA3
:10092000027E0263554941633844443C04407E20C2
:100930001E2006027E020299A5E7A5991C2A492AD3
:100940001C4C7201724C304A4D4D30304878483062
:10095000BC625A463D3E494949007E0101017E2A5A
:100960002A2A2A2A44445F444440514A444040448D
:100970004A51400000FF0103E080FF000008086BBF
:100980006B083612362436060F090F0600001818B9
:100990000000001010003040FF0101001F01011E87
:1009A00000191D1712003C3C3C3C000000000000F8
:1009B000000000240027002A000102040810204043
:1009C0008001020408102001020408102040804029
:1009D00000000000250028002B0004040404040487
:1009E00004040202020202020303030303030202DD
:1009F0000300562511241FBECFEFD8E0DEBFCDBFC8
:100A000023E0A4E2B2E001C01D92A734B207E1F7EF
:100A100012E0A0E0B1E0EEEFFEE602C005900D921C
:100A2000A432B107D9F714E0CAEFD4E004C021978B
:100A3000FE010E945435C93FD107C9F70E94A22682
:100A40000C947D370C94000085B1805885B90895C9
:100A5000FC01848995890895FC0186899789089508
:100A600090E0FC01E754F64F24918652964FFC012A
:100A70008491882399F090E0880F991FFC01E1553B
:100A8000F64FA591B491FC01E053F64F85919491F6
:100A90008FB7F894EC91E22BEC938FBF089590E020
:100AA000FC01E356FB4F2491FC01E754F64F3491CF
:100AB000FC01E652F64FE491EE23C9F0222339F00F
:100AC000243001F1A8F4223069F1233079F1F0E00B
:100AD000EE0FFF1FE053F64FA591B4918FB7F89436
:100AE000EC91611126C030953E233C938FBF089551
:100AF000283071F0293091F0253049F7809180003D
:100B00008F7D03C0809180008F7780938000DFCF3E
:100B10008091B0008F778093B000D9CF8091B000E2
:100B20008F7DF9CF84B58F7784BDD1CF84B58F7D8C
:100B3000FBCF3E2BDACF3FB7F89480914F029091D4
:100B40005002A0915102B091520226B5A89B05C057
:100B50002F3F19F00196A11DB11D3FBFBA2FA92F3C
:100B6000982F8827BC01CD01620F711D811D911D39
:100B700043E0660F771F881F991F4A95D1F70895A4
:100B80008F929F92AF92BF92CF92DF92EF92FF929D
:100B90006B017C010E949B054B015C01C114D104D7
:100BA000E104F104B9F00E949B05681979098A09EA
:100BB0009B09683E73408105910580F321E0C21ACC
:100BC000D108E108F10888EE880E83E0981EA11C88
:100BD000B11CE4CFFF90EF90DF90CF90BF90AF902B
:100BE0009F908F90089538E0439FC0011124807E2C
:100BF0009770269526952695822B70E0762F66278E
:100C00006627787F862B972B0895AF92BF92CF925D
:100C1000DF92EF92FF920F931F93CF93DF936C01BC
:100C20007B018B01040F151FEB015E01AE18BF089D
:100C3000C017D10759F06991D601ED91FC9101904F
:100C4000F081E02DC6010995892B79F7C501DF9167
:100C5000CF911F910F91FF90EF90DF90CF90BF90B9
:100C6000AF900895FC01538D448D252F30E0842FE3
:100C700090E0821B930B541710F0CF9608950197C4
:100C80000895FC01918D828D981761F0A28DAE0FB1
:100C9000BF2FB11D5D968C91928D9F5F9F73928F38
:100CA00090E008958FEF9FEF0895FC01918D828D64
:100CB000981731F0828DE80FF11D858D90E0089531
:100CC0008FEF9FEF0895FC01918D228D892F90E089
:100CD000805C9F4F821B91098F739927089583E54C
:100CE00092E00E94630621E0892B09F420E0822F24
:100CF000089580E090E0892B29F00E946F06811111
:100D00000C9400000895FC01A48DA80FB92FB11D0B
:100D1000A35ABF4F2C91848D90E001968F73992731
:100D2000848FA689B7892C93A089B1898C9183700F
:100D300080648C93938D848D981306C00288F38908
:100D4000E02D80818F7D80830895EF92FF920F9335
:100D50001F93CF93DF93EC0181E0888F9B8D8C8D67
:100D600098131AC0E889F989808185FF15C09FB75B
:100D7000F894EE89FF896083E889F989808183701E
:100D8000806480839FBF81E090E0DF91CF911F91CD
:100D90000F91FF90EF900895F62E0B8D10E00F5FEE
:100DA0001F4F0F731127E02E8C8D8E110CC00FB6C4
:100DB00007FCFACFE889F989808185FFF5CFCE015C
:100DC0000E948306F1CFEB8DEC0FFD2FF11DE35A4E
:100DD000FF4FF0829FB7F8940B8FEA89FB898081DF
:100DE0008062CFCFCF93DF93EC01888D8823B9F059
:100DF000AA89BB89E889F9898C9185FD03C0808126
:100E000086FD0DC00FB607FCF7CF8C9185FFF2CFA2
:100E1000808185FFEDCFCE010E948306E9CFDF916F
:100E2000CF91089590ED980F9A3010F48F70089537
:100E30008AE00895AC0190E0FA01E90FF11D2081EC
:100E4000222321F0203221F09F5FF6CF81E0089528
:100E500080E00895CF92DF92EF92FF920F931F935D
:100E6000CF93DF938C017A01FC01C081D181818510
:100E70008617170609F008F440C0660F771F660F43
:100E8000771FC484D584C60ED71EBE0190E080E0D3
:100E90000E94E230F60120813181428153810E941B
:100EA00053320E943833EB01F801628173818085EF
:100EB0008E151F0441F138F1EE0CFF1CEE0CFF1CE7
:100EC00082859385E80EF91E90E080E00E94E23072
:100ED000F70120813181428153810E9453320E9467
:100EE00038339B01BE01C901DF91CF911F910F9152
:100EF000FF90EF90DF90CF90089564817581C60FC9
:100F0000D71F2196D1CF86819781680F791F9B01CA
:100F10002F5F3F4FE7CFFF920F931F93CF93DF9346
:100F20008C01FC0180810E941207F82EF80181815A
:100F30000E94120728E532E0F29EE001F39ED00DF8
:100F40001124FCE38F9FC00DD11D1124F801838172
:100F50000E941207FAE08F9FC00DD11D1124F801E5
:100F600084810E9412078C0F9D2F911DDF91CF91DC
:100F70001F910F91FF90089530E020E0261737076A
:100F800041F0FC0180859185009719F02F5F3F4F5C
:100F9000F5CF08952F923F924F925F926F927F927A
:100FA0008F929F92AF92BF92CF92DF92EF92FF9279
:100FB0000F931F93CF93DF938C016B013A01FC01D8
:100FC000C08DD0E01E01220C331CE680F7806281C8
:100FD00073816E0D7F1D6C1B7D0B90E080E00E9485
:100FE000E2304B015C01B30190E080E00E94E2300E
:100FF0002B013C01F8012089318942895389648998
:101000007589868997890E9452329B01AC01C30180
:10101000B2010E94BF322B013C01E218F308B70174
:1010200090E080E00E94E2309B01AC01C301B2017C
:101030000E9443319B01AC01C501B4010E945232B0
:101040000E9438334B01B60190E080E00E94E2300C
:101050006B017C01F80120853185428553856485CB
:101060007585868597850E9452329B01AC01C70128
:10107000B6010E94BF326B017C01F8016481758169
:101080006219730990E080E00E94E2309B01AC019C
:10109000C701B6010E9443316B017C01F8016081F8
:1010A00071816C0F7D1F90E080E00E94E2309B0117
:1010B000AC01C701B6010E9453320E943833C4010B
:1010C000DF91CF911F910F91FF90EF90DF90CF9024
:1010D000BF90AF909F908F907F906F905F904F9058
:1010E0003F902F900895CF93282F362F6AE00E94CB
:1010F000F634C92F492F50E0983070F52B3161F14B
:10110000822F90E0841B950B6AE070E00E941635F8
:101110006150710963307105F8F4660F771FFB01A8
:10112000E755FE4F0190F081E02D808141E050E0D5
:1011300001C0440FCA95EAF72081942F909592231D
:10114000842B892721E0311101C020E021958223E1
:1011500089278083CF910895F0E0E0E0E6CFCF9338
:10116000C82F682F617088E10E9473086C2F70E0AF
:101170007595679587E10E94730860E085E1CF91DE
:101180000C9473088EBD00000DB407FEFDCF8EB524
:101190000895CF93DF93FC01868D882329F08FEF8C
:1011A000DF91CF910C94C20888E0BF016A5B7F4F4A
:1011B000AF014F5B5F4FA3ADB4AD9C91EB013881A4
:1011C00093239C93A3ADB4AD9C91EA013881932BFA
:1011D0009C93220FA7A9B0AD9C9137AD932309F042
:1011E0002160815041F7822FDF91CF910895CF92F6
:1011F000DF92EF92FF920F931F93CF93DF93FC0147
:10120000862F968D992351F0DF91CF911F910F91E9
:10121000FF90EF90DF90CF900C94C20828E030E070
:1012200090E87F0145E4E40EF11C6F01C0E4CC0EB0
:10123000D11C8F010A5B1F4FBF016F5B7F4FA1ADB8
:10124000B2AD482F492301F14C91E6015881452B5D
:101250004C93A3ADB4AD4C91E801588145234C9318
:10126000A3ADB4AD4C91EB015881452B4C939695B1
:101270002150310921F7DF91CF911F910F91FF90FC
:10128000EF90DF90CF9008954C91E701588145236E
:10129000DFCFFF920F931F93CF93DF93F82E162F7C
:1012A000072FC5EFD2E0EBA9FCA98081209137037D
:1012B00082238083EDA9FEA98081209138038223B7
:1012C0008083692FCE010E94F7086F2DCE010E9406
:1012D000F708EDA9FEA980819EAD892B8083602F40
:1012E000CE010E94F708612FCE010E94F708EBA9FA
:1012F000FCA980819DAD892B8083DF91CF911F91C7
:101300000F91FF9008950F931F93CF93DF93EC01FC
:101310008B01FE0185919491FE0132962496659190
:1013200074918F3F980771F490E080E00E94C005AF
:10133000045011091016110664F3DF91CF911F912B
:101340000F9108950E944909F3CFE0912803F0918D
:101350002903808190913203892B808380914103FE
:1013600087FD0EC060E00E944F0562E070E080E003
:1013700090E00E94C00561E0809141030E944F050A
:10138000E0912803F091290380819091370389230C
:101390008083E0912A03F0912B03808190913803A0
:1013A0008923808360E085EF92E00E94F708E09156
:1013B0002803F0912903808190913203892B808347
:1013C0000895CF93DF93D82FC62FE0912803F09193
:1013D000290380819091370389238083E0912A0338
:1013E000F0912B038081909138038923808360E002
:1013F00085EF92E00E94F7086D2F85EF92E00E9442
:10140000F70861E070E080E090E00E94C00585EFA1
:1014100092E00E94C908D82F85EF92E00E94C90887
:10142000C13069F0E0912803F09129039081209167
:101430003203922B90839D2FDF91CF910895C0E0CE
:10144000E6CF2F923F924F925F926F927F928F9250
:101450009F92AF92BF92CF92DF92EF92FF920F9343
:101460001F93CF93DF93EC014A01270137FF05C09B
:10147000620F731F3195219531097B01E20EF31E36
:101480005B0177FF02C0B12CA12CE881F9810684B1
:10149000F785E02DCE0109958E159F0544F4E8816E
:1014A000F9810684F785E02DCE0109957C0167015D
:1014B000CA18DB0817FF05C0800E911E1195019513
:1014C0001109080D191D97FE02C0912C812CE8818D
:1014D000F9810484F585E02DCE01099580179107E7
:1014E00044F4E881F9810484F585E02DCE01099565
:1014F0008C013801681879080150110997012150B1
:101500003109E881F9810680F781E02DA401B50158
:10151000CE010995EBA9FCA980811E0122E4220ECF
:10152000311CD1019C91892380838A8D9B8D8830C9
:10153000910501F57401C701881999098615970568
:101540000CF08CC010E000E00C151D057CF4B5011A
:10155000600F711FE881F9810280F381E02D920113
:10156000A701CE0109950F5F1F4FEECFBFEFEB1A1A
:10157000FB0AE1CF8E010D5B1F4F892B59F4EDA9BA
:10158000FEA98081D8019C918923808360E0CE01EF
:101590000E94F708EDA9FEA98081D8019C918923BA
:1015A00080836BA1CE010E94F708C614D7042CF0EB
:1015B000962D872D3601C92ED82E952CB52DB87FA6
:1015C000EB2EC20123E0969587952A95E1F7282F07
:1015D0002C7FF22E842C440C440C440C1C141D044F
:1015E00034F55301EDA9FEA99EAD29A93AA9808140
:1015F000892B80832C303105A1F46E2DCE010E9401
:10160000F7086F2DCE010E94F708642DCE010E94CD
:10161000F70881E0A81AB10829F791E0C91AD108A2
:10162000DDCF692DCE010E94F708682DEFCF8A8D9E
:101630009B8D009761F50E891F89015011092C8936
:101640003D8921503109E881F9810680F781E02D3B
:1016500050E040E070E060E0CE010995EBA9FCA904
:1016600080819DAD892B8083DF91CF911F910F9158
:10167000FF90EF90DF90CF90BF90AF909F908F90B2
:101680007F906F905F904F903F902F9008950197BB
:1016900029F7EBA9FCA98081D1019C918923808342
:1016A000EDA9FEA98081D8019C918923808364E003
:1016B000CE010E94F708EDA9FEA980819EAD892B7D
:1016C00080838C899D890197692FCE010E94F7083C
:1016D000EDA9FEA98081D8019C918923808365E0D2
:1016E000CE010E94F708EDA9FEA980819EAD892B4D
:1016F00080836C896150CE010E94F708EDA9FEA994
:101700008081D8019C918923808368E0CE010E946A
:10171000F708EDA9FEA980819EAD892B80838E8973
:101720009F890197692FCE010E94F708EDA9FEA9B4
:101730008081D8019C918923808369E0CE010E9439
:10174000F708EDA9FEA980819EAD892B80836E8963
:101750006150CE010E94F708EBA9FCA980819DADE4
:10176000892B80837BCFEF92FF920F931F939A0177
:10177000E090FF02F090000301E010E0AB01BC013B
:1017800085EF92E00E94210A1F910F91FF90EF9048
:101790000895EF92FF920F931F93E090FF02F09055
:1017A00000038A0121E030E0AB01BC0185EF92E04B
:1017B0000E94210A1F910F91FF90EF9008958F9240
:1017C0009F92AF92BF92CF92DF92EF92FF920F93D0
:1017D0001F93CF93DF938C01EB015A010E942A07DC
:1017E0006B017C01A5014F5F5F4FBE016F5F7F4FB3
:1017F000C8010E942A075C0121E0A21AB108EB018E
:10180000219787010F5F1F4F4FEFC41AD40A9E0123
:101810002C193D0949018FEF881A980AC501801BD0
:10182000910B7C014FEFE41AF40A97FE04C04901C2
:10183000809490946E01F7FE04C07C01E094F094D3
:101840008501A401B801C6010E94B30BA401B50132
:10185000C6010E94B30BA701B801C6010E94C90BC3
:10186000A701B801CE01DF91CF911F910F91FF9099
:10187000EF90DF90CF90BF90AF909F908F900C949F
:10188000C90B8F929F92AF92BF92CF92DF92EF924D
:10189000FF920F931F93CF93DF93EC01F12CE12C78
:1018A00089858E151F0409F008F44FC00C851D852D
:1018B000C701880F991F880F991F080F191FF8017A
:1018C00080809180A280B38020E030E0A901C50132
:1018D000B4010E94DD3087FD34C020E030E040E8F4
:1018E0005FE3C501B4010E94DD3018167CF06C8105
:1018F0007D8190E080E00E94E230A50194010E9489
:101900004331F8016083718382839383CE80DF80CB
:10191000FFEFCF1ADF0AAA80BB806881798190E04F
:1019200080E00E94E230F8012081318142815381C0
:101930000E9453320E943133CB01A601B5010E94AF
:10194000C90BFFEFEF1AFF0AABCFF12CE12C888512
:101950008E151F0409F008F44DC00A851B85C701C8
:10196000880F991F880F991F080F191FF801808091
:101970009180A280B38020E030E0A901C501B401CC
:101980000E94DD3087FD32C020E030E040E85FE3B8
:10199000C501B4010E94DD3018167CF06E817F8194
:1019A00090E080E00E94E230A50194010E94433162
:1019B000F8016083718382839383CC80DD80FFEFA5
:1019C000CF1ADF0A6A817B8190E080E00E94E230DA
:1019D000F80120813181428153810E9453320E945B
:1019E0003133A601888199810E94B30BFFEFEF1A72
:1019F000FF0AADCFDF91CF911F910F91FF90EF9034
:101A0000DF90CF90BF90AF909F908F9008954F92AE
:101A10005F926F927F92AF92BF92CF92DF92EF92DE
:101A2000FF920F931F93CF93DF935C017B016A01B9
:101A3000FC018185849FE001859FD00D1124C60F94
:101A4000D71FCE01880F991FC80FD91F868597858C
:101A5000C80FD91F088319832A83C5010E942A074A
:101A60002B013C01A6014F5F5F4FB7016F5F7F4FB6
:101A7000C5010E942A076B01F1E0CF1AD108C418F2
:101A8000D5088C0101501109061917092A814981CD
:101A9000688185EF92E00E94F305A3014F5F5F4FDD
:101AA000B2016F5F7F4F7C01960185EF92E00E944B
:101AB000210ADF91CF911F910F91FF90EF90DF905E
:101AC000CF90BF90AF907F906F905F904F900895B0
:101AD000AF92BF92CF92DF92EF92FF920F931F933C
:101AE000CF93DF9377FD76C057FD74C079015A011B
:101AF0006B01EC01E881F9810684F785E02D0995F9
:101B00008C159D050CF466C0E881F9810484F58587
:101B1000E02DCE0109958A159B050CF45BC0E88188
:101B2000F9810680F781E02D85019601A501B601B6
:101B3000CE010995EBA9FCA98081DE01AE5BBF4F08
:101B40009C91892380838A8D9B8D8730910561F4D8
:101B5000EDA9FEA980819EAD892B80836F2DCE01DA
:101B60000E94F7086E2D2DC0089771F1EDA9FEA90E
:101B7000DE01AD5BBF4F9C9129A93AA980818923E1
:101B800080832C30310589F56BA1CE010E94F708C6
:101B9000EDA9FEA980819EAD892B80836F2D687F82
:101BA000CE010E94F708B70183E0769567958A9584
:101BB000E1F76C7FCE010E94F7086E2D660F660F6D
:101BC000660FCE010E94F708EBA9FCA980819DADAC
:101BD000892B8083DF91CF911F910F91FF90EF9020
:101BE000DF90CF90BF90AF9008956CA1CE010E947E
:101BF000F7086BA1CE010E94F708AACF2F923F925F
:101C00004F925F926F927F928F929F92AF92BF920C
:101C1000CF92DF92EF92FF920F931F93CF93DF93B8
:101C20007B018A01E9015901A61AB70AB7FE03C070
:101C3000B194A194B1084801881A990A97FE03C08B
:101C40009194819491088A149B0454F03C2F2D2F79
:101C5000E801032F122F3E2D2F2D7C01832F922F71
:101C6000CE15DF0554F0302F212F8C01832F922FBA
:101C70003C2F2D2FE701E32EF22E27014C1A5D0A8F
:101C80003C01601A710A77FE03C071946194710877
:101C9000620157FE03C02FEFC21AD20AD594C7942F
:101CA00008171907FCF422242394312CEC16FD06A6
:101CB000ECF02091FF0230910003AE01B8018A14CC
:101CC0009B0414F0A801BE0185EF92E00E94680D0C
:101CD000C618D708D7FE04C0020D131DC40CD51CAE
:101CE0002196E4CF22242A94322CE0CFDF91CF91A9
:101CF0001F910F91FF90EF90DF90CF90BF90AF902A
:101D00009F908F907F906F905F904F903F902F901B
:101D100008952F923F924F925F926F927F928F928F
:101D20009F92AF92BF92CF92DF92EF92FF920F936A
:101D30001F93CF93DF9300D000D0CDB7DEB71C0147
:101D40002A013B01C901B8010E94383369837A83B3
:101D50008B839C83C301B2010E94383349815A812D
:101D6000C1010E94CA072B013C01C501B4010E94B8
:101D700038334B01C701B6010E943833A401C101B9
:101D80000E94CA079C01AB01B301C2010F900F90E2
:101D90000F900F90DF91CF911F910F91FF90EF90D7
:101DA000DF90CF90BF90AF909F908F907F906F907B
:101DB0005F904F903F902F900C94FE0D2F923F928A
:101DC0004F925F926F927F928F929F92AF92BF924B
:101DD000CF92DF92EF92FF920F931F93CF93DF93F7
:101DE000CDB7DEB72A970FB6F894DEBF0FBECDBFD2
:101DF0009C838B83CB01242F2150330BB9010E948C
:101E0000BC071C01FC010084F185E02DFA87E987FD
:101E1000208531853A832983F9010084F185E02DFD
:101E2000FE83ED838FEF9FEF909300038093FF027B
:101E3000EF2B79F1C9010E948B077C01C1010E943F
:101E40008B078C01E981FA816681778190E080E0DF
:101E50000E94E2304B015C01B70190E080E00E94FB
:101E6000E2306B017C01F1016681778190E080E0D6
:101E70000E94E2302B013C01B80190E080E00E941A
:101E8000E230AB01BC01930182018B819C810E94F5
:101E9000890E109200031092FF0289859A850E9494
:101EA0008B078C01C1010E948B0798878F83E9857E
:101EB000FA856681778190E080E00E94E2304B01F4
:101EC0005C01B80190E080E00E94E2306B017C018F
:101ED000F1016681778190E080E00E94E2302B0181
:101EE0003C012F813885B90190E080E00E94E2300A
:101EF000AB01BC01930182018B819C810E94890E00
:101F00008D819E81892B91F189819A810E948B0715
:101F10008C0189859A850E948B071C01E981FA81D1
:101F20006681778190E080E00E94E2304B015C01A5
:101F3000B80190E080E00E94E2306B017C01E9850D
:101F4000FA856681778190E080E00E94E2302B0183
:101F50003C01B10190E080E00E94E230AB01BC01A5
:101F6000930182018B819C810E94890E2A960FB673
:101F7000F894DEBF0FBECDBFDF91CF911F910F91BF
:101F8000FF90EF90DF90CF90BF90AF909F908F9099
:101F90007F906F905F904F903F902F9008952F9279
:101FA0003F924F925F926F927F928F929F92AF92E9
:101FB000BF92CF92DF92EF92FF920F931F93CF9336
:101FC000DF93CDB7DEB72A970FB6F894DEBF0FBE0A
:101FD000CDBF9C838B83CB01242F2150330BB901C0
:101FE0000E94BC071C01FC0160847184F301008421
:101FF000F185E02DFA87E987208531853A832983A9
:102000008FEF9FEF909300038093FF02C3010E9424
:102010008B077C01C1010E948B078C01F301668153
:10202000778190E080E00E94E2304B015C01B701D3
:1020300090E080E00E94E2306B017C01F10166815A
:10204000778190E080E00E94E2306D837E838F8311
:102050009887B80190E080E00E94E230AB01BC01BB
:102060000D811E812F8138858B819C810E94890E74
:1020700029813A81232B99F189859A850E948B07C2
:102080008C01C3010E948B079E838D83E985FA85AD
:102090006681778190E080E00E94E2304B015C0134
:1020A000B80190E080E00E94E2306B017C01F30116
:1020B0006681778190E080E00E94E2302B013C0154
:1020C0002D813E81B90190E080E00E94E230AB01B9
:1020D000BC01930182018B819C810E94890E109228
:1020E00000031092FF0289819A81892B99F18985D9
:1020F0009A850E948B078C01C1010E948B079A83ED
:102100008983E985FA856681778190E080E00E9485
:10211000E2304B015C01B80190E080E00E94E230C7
:102120006B017C01F1016681778190E080E00E9483
:10213000E2302B013C0129813A81B90190E080E035
:102140000E94E230AB01BC01930182018B819C8132
:102150000E94890E2A960FB6F894DEBF0FBECDBF3F
:10216000DF91CF911F910F91FF90EF90DF90CF9073
:10217000BF90AF909F908F907F906F905F904F90A7
:102180003F902F9008953F924F925F926F927F926F
:102190008F929F92AF92BF92CF92DF92EF92FF9277
:1021A0000F931F93CF93DF93EC01590198010E9D7C
:1021B00060010F9DD00C1E9DD00C11248701040FCF
:1021C000151F01501109260F371F21503109E881D1
:1021D000F9810680F781E02D09952E0182E4480EF1
:1021E000511C3E01A3E46A0E711C1C141D040CF06A
:1021F00096C0EBA9FCA98081D2019C9189238083A0
:10220000EDA9FEA98081D3019C91892380836EA1D1
:10221000CE010E94F7086DA1CE010E94F7088A8DB9
:102220009B8D892B09F043C075018601CE010E9468
:10223000C908CE010E94C908CE010E94C908CE017A
:102240000E94C908CE010E94C908CE010E94C90897
:10225000CE010E94C908382ECE010E94C908932DD4
:10226000F701819391937F0101501109F9F6CC0C8C
:10227000DD1CAC0CBD1C0E891F89015011092C8975
:102280003D8921503109E881F9810680F781E02DEF
:1022900050E040E070E060E0CE010995EBA9FCA9B8
:1022A00080819DAD892B8083D12CC12C9ECFCE0106
:1022B0000E94C908750186018FA598A981309105F2
:1022C00011F5CE010E94C908982ECE010E94C908BE
:1022D000882ECE010E94C908E881F9810190F08121
:1022E000E02D282F482D692DCE0109954C01D701ED
:1022F0008D929D927D0101501109F1F6CC0CDD1CEF
:10230000AC0CBD1CCBCF892B91F7CE010E94C90824
:10231000882ECE010E94C908982C882EE8CF90E024
:1023200080E0DF91CF911F910F91FF90EF90DF90B0
:10233000CF90BF90AF909F908F907F906F905F9065
:102340004F903F9008959F92AF92BF92CF92DF92AD
:10235000EF92FF920F931F93CF93DF93EC016B01EA
:10236000942EA52E0170B02EEBA9FCA98081DE0170
:10237000AE5BBF4F9C91892380832223E9F08A8D35
:102380009B8D8E010D5B1F4F892B59F4EDA9FEA982
:102390008081D8019C918923808360E0CE010E94D6
:1023A000F708EDA9FEA98081D8019C91892380833B
:1023B0006BA1CE010E94F7087601C92CDA2C1C14FF
:1023C0001D04B4F5BB2059F1F70105911491EDA955
:1023D000FEA99EAD29A93AA98081892B8083612F0E
:1023E0002C30310501F5687FCE010E94F708B80155
:1023F00083E0769567958A95E1F76C7FCE010E9420
:10240000F708602F660F660F660FCE010E94F7086F
:10241000B2E0EB0EF11CE1E0CE1AD108D0CFD7012B
:102420000D911C91D4CFCE010E94F708602FEDCF03
:10243000EBA9FCA980819DAD892B8083DF91CF9191
:102440001F910F91FF90EF90DF90CF90BF90AF90D2
:102450009F900895AF92BF92CF92DF92EF92FF923A
:102460000F931F93CF93DF93EC01162FB42EA52E5D
:10247000022FEBA9FCA98081DE01AE5BBF4F9C91CE
:10248000892380838A8D9B8DEDA9FEA99E012D5BFA
:102490003F4F69010897A1F58081D9019C9189235B
:1024A0008083612FCE010E94F708EB2CFA2CBB240D
:1024B000BA94B00E101674F5F70161917F01EDA981
:1024C000FEA980819EAD892B8083CE010E94F708F2
:1024D000BB20A1F08A8D9B8D019781F41F5FEDA930
:1024E000FEA98081D6019C918923808360E0CE0182
:1024F0000E94F708612FCE010E94F7080B2DD7CF5D
:102500008081D9019C918923808360E0CE010E9463
:10251000F708C7CFEBA9FCA980819DAD892B8083EB
:10252000DF91CF911F910F91FF90EF90DF90CF90AF
:10253000BF90AF900895DF92EF92FF920F931F9399
:10254000CF93DF93CDB7DEB768970FB6F894DEBFB1
:102550000FBECDBF8C017B01F80164913196D49000
:102560000E5F1F4F6F3771F0DE01119690E080E033
:10257000AD018D1520F5F801E80FF91FE491ED93F9
:102580000196F7CF6D2D70E090E080E00E94C005CD
:10259000D12CED2DF0E03296EE1AFF0A1E141F0426
:1025A000DCF268960FB6F894DEBF0FBECDBFDF91A8
:1025B000CF911F910F91FF90EF90DF9008950D0D37
:1025C000111D2D2D85EF92E00E942A12E2CF2F924D
:1025D0003F924F925F926F927F928F929F92AF92B3
:1025E000BF92CF92DF92EF92FF920F931F93CF9300
:1025F000DF93CDB7DEB728970FB6F894DEBF0FBED6
:10260000CDBF7C015B016A014901DC01D396ED91EC
:10261000FC91D4978081AE5BBF4F9C9189238083CE
:10262000F701828D938D009709F046C1808D918DC1
:102630008230910509F412C18330910509F42AC151
:102640002A013B01019789F480899189980120959D
:102650003095C094D0943601680E791E2B01840108
:10266000430165015901A80EB91ED701D596ED9118
:10267000FC9180811701B3E42B0E311CD1019C9198
:102680008923808360E0C7010E94F70860E5C701E5
:102690000E94F708D701D596ED91FC91D6978081DD
:1026A000DE969C91892B80836B2DC7010E94F708D1
:1026B0006A2DC7010E94F708D701D596ED91FC91CC
:1026C0008081D1019C918923808360E0C7010E94B1
:1026D000F70861E5C7010E94F708D701D596ED918B
:1026E000FC91D6978081DE969C91892B8083692D01
:1026F000C7010E94F708682DC7010E94F708D7019B
:10270000D596ED91FC918081D1019C9189238083A4
:1027100060E0C7010E94F70862E5C7010E94F70860
:10272000D701D596ED91FC91D6978081DE969C914C
:10273000892B80836D2DC7010E94F7086C2DC7017E
:102740000E94F708D701D596ED91FC918081D101C7
:102750009C918923808360E0C7010E94F70863E5AC
:10276000C7010E94F708D701D596ED91FC91D69745
:102770008081DE969C91892B8083612FC7010E9406
:10278000F708602FC7010E94F708D701D596ED9191
:10279000FC918081D1019C918923808360E0C701F5
:1027A0000E94F70860E2C7010E94F708D701D5969A
:1027B000ED91FC91D6978081DE969C91892B808348
:1027C000672DC7010E94F708662DC7010E94F70810
:1027D000D701D596ED91FC918081D1019C918923FF
:1027E000808360E0C7010E94F70861E2C7010E9490
:1027F000F708D701D596ED91FC91D6978081DE96AA
:102800009C91892B8083652DC7010E94F708642D58
:10281000C7010E94F708D701D396ED91FC91D49798
:102820008081DD969C91892B808328960FB6F89441
:10283000DEBF0FBECDBFDF91CF911F910F91FF90F3
:10284000EF90DF90CF90BF90AF909F908F907F9050
:102850006F905F904F903F902F900895808991895D
:10286000A901409550954C01861A970AB1E08B1A40
:10287000910822893389B801609570958601009589
:102880001095020F131F280134016B01C20ED31ED5
:102890005A01E9CE82899389209530952C01461AF8
:1028A000570AB1E04B1A51083A014801820156011A
:1028B0006901C80ED91ED9CE8130910509F0D9C061
:1028C00005A8F6A9E02D80813701B3E46B0E711CD9
:1028D000D3019C918923808362E0C7010E94F7089D
:1028E000D701D596ED91FC91D6978081DE969C918B
:1028F000892B80836B2DC7010E94F708D701D596DD
:10290000ED91FC918081D3019C918923808363E0C8
:10291000C7010E94F708D701D596ED91FC91D69793
:102920008081DE969C91892B80836A2DC7010E944D
:10293000F708D701D596ED91FC918081D3019C9148
:102940008923808366E0C7010E94F708D701D596E6
:10295000ED91FC91D6978081DE969C91892B8083A6
:102960006D2DC7010E94F708D701D596ED91FC9116
:102970008081D3019C918923808367E0C7010E94F5
:10298000F708D701D596ED91FC91D6978081DE9618
:102990009C91892B80836C2DC7010E94F708D70179
:1029A000D596ED91FC918081D3019C918923808300
:1029B00064E0C7010E94F708D701D596ED91FC911C
:1029C000D6978081DE969C91892B8083692DC701E3
:1029D0000E94F708D701D596ED91FC918081D30133
:1029E0009C918923808365E0C7010E94F708D70185
:1029F000D596ED91FC91D6978081DE969C91892B9E
:102A00008083682DC7010E94F708D701D596ED9104
:102A1000FC918081D3019C918923808368E0C70168
:102A20000E94F708D701D596ED91FC91D697808149
:102A3000DE969C91892B8083612FC7010E94F70845
:102A4000D701D596ED91FC918081D3019C9189238A
:102A5000808369E0C7010E94F708D701D596ED9100
:102A6000FC91D6978081DE969C91892B8083602F84
:102A7000CFCE8730910509F0ACC0808D918D81302B
:102A8000910531F058F08230910541F00397A1F49F
:102A900022E0C20ED11C0E5F1F4F0EC0C60102966F
:102AA00098012E5F3F4F6501F2E0CF0ED11C8401EB
:102AB0000E5F1F4F49015C01D701D596ED91FC9146
:102AC00080813701B3E46B0E711CD3019C91892383
:102AD0008083F701678DC7010E94F708D701D5965B
:102AE000ED91FC91D6978081DE969C91892B808315
:102AF000682DC7010E94F708D701D596ED91FC918A
:102B0000D6978081DE969C91892B80836A2DC701A0
:102B10000E94F708D701D596ED91FC918081D301F1
:102B20009C9189238083F70161A1C7010E94F70866
:102B3000D701D596ED91FC91D6978081DE969C9138
:102B4000892B8083602FC7010E94F708D701D59693
:102B5000ED91FC91D6978081DE969C91892B8083A4
:102B60006C2DC7010E94F708D701D596ED91FC9115
:102B70008081D3019C918923808361E2C7010E94F7
:102B8000F708D701D596ED91FC91D6978081DE9616
:102B90009C91892B80836A2DC7010E94F708D70179
:102BA000D596ED91FC91D6978081DE969C91892BEC
:102BB00080836C2DC7010E94F708D701D596ED914F
:102BC000FC918081D3019C9189238083F70163A1CB
:102BD0001FCE8830910509F428CE678D099769F5D5
:102BE0008685282F30E0A9014A0D5B1D5D83A80E64
:102BF000AE82280D391D3F83880E88868785282F51
:102C000030E0A9014C0D5D1D5983C80ECA82200F0A
:102C1000311F3B83080F0C8324E0AE014B5F5F4FF5
:102C2000C7010E942A1224E0AE014F5F5F4FF701F7
:102C300061A1C7010E942A12EECDBD82AE829F82A1
:102C40002887D9824A831B830C8324E0AE014B5F23
:102C50005F4FC7010E942A1224E0AE014F5F5F4F11
:102C6000D70191966C91E5CFCF92DF92EF92FF92D0
:102C70000F931F93CF93DF9300D000D000D0CDB738
:102C8000DEB7282F237030E030930E0320930D031E
:102C9000282F217080FFA7C080910703909108031F
:102CA00090930A0380930903809105039091060392
:102CB000211104C0809107039091080390930C03A5
:102CC00080930B03E0912803F09129038081909178
:102CD00037038923808320910F033091100321153E
:102CE000310509F090C080910D0390910E03813061
:102CF000910509F47DC008F483C08230910509F480
:102D00007AC0039709F479C0E0912A03F0912B036C
:102D1000808190913803892380836091210385EF1E
:102D200092E00E94F7086091200385EF92E00E94F4
:102D3000F708E0912A03F0912B03808190913303EF
:102D4000892B808360E185EF92E00E94F7086C2D6B
:102D500085EF92E00E94F70800910B0310910C039D
:102D6000015011092091090330910A0321503109C2
:102D700050E040E070E060E085EF92E00E94E712F2
:102D800080910F03909110038930910509F42BC2B3
:102D9000009709F0E9C163E070E080911C03909115
:102DA0001D030E94490970E060E080911E0390912C
:102DB0001F030E944909E0912803F09129038081B3
:102DC00090913203892B808326960FB6F894DEBF4C
:102DD0000FBECDBFDF91CF911F910F91FF90EF906C
:102DE000DF90CF900895809105039091060358CF0E
:102DF00008E2C02E89CFC12C87CF18E1C12E84CF25
:102E0000B0E3CB2E81CF2630310591F580910D03B3
:102E100090910E038130910501F138F182309105D6
:102E2000F9F00397F9F0E0912A03F0912B038081E8
:102E300090913803892380836091200385EF92E08D
:102E40000E94F708E0912A03F0912B038081909172
:102E50003303892B80836D2D7BCFA0EADA2EE3CF5D
:102E6000D12CE1CFF0E6DF2EDECFE0EDDE2EDBCFA2
:102E70002930310509F04BC080910D0390910E036C
:102E80008130910549F1F8F08230910571F1039795
:102E9000A9F1E0912A03F0912B03808190913803EE
:102EA000892380836091200385EF92E00E94F708D8
:102EB000E0912A03F0912B03808190913303892BB9
:102EC00080836E2D45CF82E08093030383E080935F
:102ED000040378EDE72EDDCF83E08093030382E0E7
:102EE0008093040368EAE62ED4CF82E08093030344
:102EF00081E08093040358E0E52ECBCF81E08093FE
:102F0000030382E08093040348E6E42EC2CF273017
:102F1000310509F0A2C080910D0390910E0381301C
:102F2000910549F008F450C08230910509F44CC075
:102F3000039709F011CFE0912A03F0912B038081D0
:102F4000909138038923808360E085EF92E00E94AE
:102F5000F70861E085EF92E00E94F708E0912A030C
:102F6000F0912B03808190913303892B808362E25F
:102F700085EF92E00E94F70863E885EF92E00E94F7
:102F8000F708E0912A03F0912B0380819091380398
:102F90008923808360E085EF92E00E94F70863E078
:102FA00085EF92E00E94F708E0912A03F0912B034D
:102FB000808190913303892B808368E685EF92E0CE
:102FC0000E94F70868E3C4CEE0912A03F0912B0336
:102FD0008081909138038923808360E085EF92E0BF
:102FE0000E94F70861E085EF92E00E94F708E09107
:102FF0002A03F0912B03808190913303892B8083E6
:1030000061E285EF92E00E94F70863E885EF92E0C5
:103010000E94F708E0912A03F0912B0380819091A0
:1030200038038923808360E085EF92E00E94F708EF
:1030300063E085EF92E00E94F708E0912A03F091A7
:103040002B03808190913303892B808368E685EF81
:1030500092E00E94F70860E37BCE2830310509F446
:10306000B3CE80910D0390910E03E0912A03F0916D
:103070002B03409138032530310549F58130910506
:10308000D1F010F182309105C9F00397D1F0808121
:10309000842380836091200385EF92E00E94F708EB
:1030A000E0912A03F0912B03808190913303892BC7
:1030B00080836F2D4DCE38E7F32EE9CF28ECF22E2A
:1030C000E6CF98EAF92EE3CF88E0F82EE0CF2A3059
:1030D000310529F581309105D1F0F8F08230910564
:1030E000C1F00397C1F08081842380836091200325
:1030F00085EF92E00E94F708E0912A03F0912B03FC
:10310000808190913303892B8083602F21CE08EA40
:10311000EACF08E1E8CF08E7E6CF08ECE4CF81305A
:103120009105D1F0F8F082309105C1F00397C1F01C
:103130008081842380836091200385EF92E00E9448
:10314000F708E0912A03F0912B03808190913303DB
:10315000892B8083612FFCCD18E2EACF18E9E8CFF4
:1031600018EFE6CF18E4E4CF8730910539F470E02A
:1031700060E080911C0390911D031BCE089709F419
:103180001ACE80E0909107032091080319821A82D9
:103190002B839C831D828E8326E0AE014F5F5F4FA1
:1031A00060911C0385EF92E00E942A1219821A8214
:1031B00022E0AE014F5F5F4F60911E0385EF92E00A
:1031C0000E942A1280910F0390911003019769F4D5
:1031D000198221E0AE014F5F5F4F61E085EF92E021
:1031E0000E942A12E8CD84E0CDCF20E050E040E0FC
:1031F00063E1F4CFCF93DF9360E085E10E94730831
:1032000088E60E94C20861E085E10E9473084B993C
:10321000FECF60E085E10E94730881E40E94C2084D
:1032200080E00E94C208D82F80E00E94C208C82F08
:1032300061E085E10E947308CE01DF91CF9108958E
:10324000CF93DF93C091F002D091F102EF81F88526
:10325000309799F4998388837B836A834C833E8378
:103260002D8389E090E00E945A35FC011086178278
:1032700098878F83DF91CF910895EF01E7CFFC010D
:1032800001900020E9F73197AF01481B590BBC01B1
:1032900083E592E00C9405068F929F92AF92BF92C5
:1032A0000F931F93CF93DF93CDB7DEB7A1970FB6E0
:1032B000F894DEBF0FBECDBF19A2423008F44AE039
:1032C0008E010F5D1F4F842E912CB12CA12CA501D6
:1032D00094010E942A35E62FB901CA01EA30F4F4BC
:1032E000E05DD801EE938D01232B242B252B79F75C
:1032F00090E080E0109719F0CD010E943F19A1964F
:103300000FB6F894DEBF0FBECDBFDF91CF911F91F6
:103310000F91BF90AF909F908F900895E95CE1CF9F
:10332000CF92DF92EF92FF92CF93DF936B017C01FC
:10333000F7FE1FC06DE283E592E00E94A506EC0156
:1033400066277727CB016C197D098E099F094AE012
:103350000E944C19C80FD91F85ED91E00E943F19BA
:103360008C0F9D1FDF91CF91FF90EF90DF90CF905A
:1033700008954AE00E944C19EC01EECF4F925F9203
:103380006F927F928F929F92AF92BF92CF92DF9275
:10339000EF92FF9281E00E94AF080E94FA182C0180
:1033A000990F6608770880E00E94AF080E94FA181B
:1033B0004C01990FAA08BB0883E00E94AF080E9445
:1033C000FA186C01990FEE08FF0888ED91E00E9451
:1033D0003F19C301B2010E9490198EED91E00E9445
:1033E0003F19C501B4010E94901984EE91E00E943A
:1033F0003F19C701B6010E949019C501B4016419B3
:103400007509860997090E94E4309B01AC0160EDC3
:1034100073E885E59DE30E94BF324B015C01C70163
:10342000B60164197509860997090E94E4309B0169
:10343000AC01C501B4010E944331FF90EF90DF90D1
:10344000CF90BF90AF909F908F907F906F905F9044
:103450004F900895CF93DF93D0E0C0E0009719F02C
:103460000E943F19EC0185ED91E00E943F198C0FFD
:103470009D1FDF91CF9108954F925F926F927F923F
:103480008F929F92AF92BF92CF92DF92EF92FF9274
:103490000F931F93CF936B017C01742EAC019B01A2
:1034A0000E940C34882399F08AEE91E0CF911F910D
:1034B0000F91FF90EF90DF90CF90BF90AF909F90D3
:1034C0008F907F906F905F904F900C943F194601C2
:1034D0005701E894B7F82FEF3FEF4FE75FE7C501DB
:1034E000B4010E940C3481110DC02FEF3FEF4FE764
:1034F0005FE7C501B4010E94DD3018161CF48EEEA2
:1035000091E0D4CF2FEF3FEF4FE75FE4C701B60163
:103510000E94673318161CF482EF91E0C7CF2FEF9B
:103520003FEF4FE75FECC701B6010E94DD3087FD3A
:10353000F3CF20E030E0A901C701B6010E94DD30E1
:1035400010E000E087FF0AC06DE283E592E00E9490
:10355000A5068C01F7FAF094F7F8F094C0E060E06B
:1035600070E080E09FE37C1641F020E030E040E234
:1035700051E40E94BF32CF5FF6CFA70196010E94AF
:1035800053322B013C010E9438334B015C014AE06D
:103590000E944C197C01E00EF11ECC23C1F1C50143
:1035A000B4010E94E2309B01AC01C301B2010E9450
:1035B00052324B015C016EE283E592E00E94A50667
:1035C000E80EF91EC15018F120E030E040E251E46D
:1035D000C501B4010E9443312B013C010E943833E4
:1035E0004B01B12CA12C4AE0C501B4010E944C1939
:1035F000E80EF91EC501B4010E94E2309B01AC0146
:10360000C301B2010E9452324B015C01DBCFC70102
:10361000CF911F910F91FF90EF90DF90CF90BF90CF
:10362000AF909F908F907F906F905F904F90089594
:103630002F923F924F925F926F927F928F929F92C2
:10364000AF92BF92CF92DF92EF92FF920F931F93B0
:10365000CF93DF93CDB7DEB72D970FB6F894DEBFCB
:103660000FBECDBFFC01A081B181CB018E5097422E
:10367000029720F5FD0101900020E9F73197EA1B40
:10368000FB0B8091010326E0829FC00111248E9FD5
:1036900090018F9F300D9E9F300D11248091090362
:1036A00090910A03821B930B6E30774289F5BC011F
:1036B00097FF02C06F5F7F4F759567957093F80213
:1036C0006093F7025093FA024093F902BE83AD83F0
:1036D000ED81FE819191FE83ED83892F992309F479
:1036E000DDC09A30C9F480910103F8E08F9FC001DA
:1036F00011242091F9023091FA02820F931F9093C6
:10370000FA028093F9021092F8021092F702E0CFC9
:10371000BC0161507109D2CF9D30D1F22091F702E6
:103720003091F802398728872091090330910A03E4
:1037300048855985421753070CF088C06090F902FC
:103740007090FA0220910B0330910C0362167306FD
:103750000CF07CC0509101035A83C52ED12C2885D2
:103760003985E6E05E9F200D311D112412161306E7
:103770000CF06CC0960193E0220F331F9A95E1F78D
:10378000260D371D121613060CF060C0803B08F0A2
:103790008F5FF0910203FF832090FD023090FE02C4
:1037A0002091FB023091FC023C832B834885598594
:1037B0005D874C875A01198224EB34E0241B350BBA
:1037C000F90145E0849FE00DF11D1124FB87EA8794
:1037D0005981E0E0553029F0EA85FB85EA0DFB1DB3
:1037E000E4912301912C812C8E2F90E0998788877A
:1037F000E0FF3CC09A812B813C81EB80FC809130C2
:1038000009F042C0A301480D591DB50185EF92E0B2
:103810000E94680DE885F985F595E7953FEF831AD5
:10382000930A4C0C5D1C48E084169104E9F65FEFA6
:10383000A51AB50A8C859D858C0D9D1D9D878C874D
:1038400099819F5F9983963009F0C2CF209101033F
:103850008091F7029091F802E6E02E9F800D911D75
:1038600011249093F8028093F70232CFEB81FC8110
:103870002E163F0679F2FF81F111CCCF2A8171011A
:10388000213011F49101BECF86019601A2016C8511
:103890007D8585EF92E00E94210ABCCF2D960FB660
:1038A000F894DEBF0FBECDBFDF91CF911F910F9176
:1038B000FF90EF90DF90CF90BF90AF909F908F9050
:1038C0007F906F905F904F903F902F9008950E944F
:1038D0003C378F929F92AF92BF92CF92DF92EF923E
:1038E000FF920F931F93CF93DF93CDB7DEB760970F
:1038F0000FB6F894DEBF0FBECDBF7C015B014A015D
:10390000022F11E0D7011896CD90DC90C114D1049C
:1039100089F0C6010E948B0721E030E0101710F0FB
:1039200030E020E02A0D3B1D8217930718F41F5F3B
:103930007601E8CF1A861986FE013B9684E0DF0106
:103940001D928A95E9F7988A8F8688E03297DE0182
:10395000119601900D928A95E1F78AE090E00E941D
:103960005A359C01FC011186108688E0FE013196D3
:10397000D90101900D928A95E1F7D70118968D91A2
:103980009C911997F9019187808719963C932E9302
:103990001897C5016CE370E00E9402359F938F93E6
:1039A0007F936F9386EF91E09F938F933F932F9335
:1039B0000E945A370FB6F894DEBF0FBECDBF812FDD
:1039C00060960FB6F894DEBF0FBECDBFDF91CF91EA
:1039D0001F910F91FF90EF90DF90CF90BF90AF902D
:1039E0009F908F9008952F923F924F925F926F9287
:1039F0007F928F929F92AF92BF92CF92DF92EF927F
:103A0000FF920F931F93CF93DF93CDB7DEB76497E9
:103A10000FB6F894DEBF0FBECDBF988B8F87CB015A
:103A2000E982FA820B831C832D833E834F83588760
:103A3000CB86CC2009F41FC12C2D2150330BB901AA
:103A40000E94BC079A878987FC0120843184CF803B
:103A5000D884F101868197818C159D0549F4BE01BA
:103A60006F5F7F4FC1010E944A37892B09F4EAC07A
:103A7000F1010084F185E02DFE87ED8720853185F9
:103A80003A8B298B8FEF9FEF909300038093FF0277
:103A90003B85332379F1CE0101960E948B077C018F
:103AA00089859A850E948B078C01B60190E080E0A1
:103AB0000E94E2304B015C01B70190E080E00E947F
:103AC000E2306B017C01E985FA856681778190E0BF
:103AD00080E00E94E2302B013C01B80190E080E0E0
:103AE0000E94E230AB01BC01930182018F8598896D
:103AF0000E94890E29893A89232B99F18D859E850B
:103B00000E948B078C01CE0101960E948B079C8B33
:103B10008B8BED85FE856681778190E080E00E9449
:103B2000E2304B015C01B80190E080E00E94E2309D
:103B30006B017C016F81788590E080E00E94E2302B
:103B40002B013C012B893C89B90190E080E00E9467
:103B5000E230AB01BC01930182018F8598890E94FC
:103B6000890E109200031092FF023B85332399F1D6
:103B7000C1010E948B078C0189859A850E948B0761
:103B80009C878B87F1016681778190E080E00E94BD
:103B9000E2304B015C01B80190E080E00E94E2302D
:103BA0006B017C01E985FA856681778190E080E090
:103BB0000E94E2302B013C012B853C85B90190E04D
:103BC00080E00E94E230AB01BC01930182018F854D
:103BD00098890E94890E89899A89892B99F18D8506
:103BE0009E850E948B078C01C1010E948B079A87DA
:103BF0008987ED85FE856681778190E080E00E946F
:103C0000E2304B015C01B80190E080E00E94E230BC
:103C10006B017C01F1016681778190E080E00E9478
:103C2000E2302B013C0129853A85B90190E080E022
:103C30000E94E230AB01BC01930182018F8598891B
:103C40000E94890E64960FB6F894DEBF0FBECDBFFA
:103C5000DF91CF911F910F91FF90EF90DF90CF9068
:103C6000BF90AF909F908F907F906F905F904F909C
:103C70003F902F90089570E060E00E94BC071C0107
:103C8000E6CEEF92FF920F931F93CF93DF93EC0159
:103C900061110BC00884D985C02DCE01DF91CF9171
:103CA0001F910F91FF90EF9008956150770B0E9444
:103CB000BC078C01FC0180859185009771F3FC01A4
:103CC000E084F1840E94F635F801F186E086E5CFC4
:103CD000AF92BF92CF92DF92EF92FF920F931F931A
:103CE000CF93DF9300D000D000D0CDB7DEB78C01EA
:103CF0005B017A01690181E080930203D8011A9681
:103D0000ED91FC91CA010196880F991F880F991FA8
:103D1000E80FF91FDF0114972D913D914D915C91B2
:103D200060817181828193810E94523220E030E073
:103D300040E05EE30E9443310E9438336093010308
:103D4000A701B501C8010E942A075C01B4E0AB0ECF
:103D5000B11C7B01E4E0EE0EF11C1A8219821C8278
:103D60001B821E821D82F60101900020E9F7319727
:103D70008F010C191D09B8016F5F7F4F90E080E043
:103D80000E947F36009781F09A8389831C830B837E
:103D90002D813E81232B11F4DC011C921E830D83A7
:103DA000B6010E9453370CC089819A81009711F0A7
:103DB0000E94F6351A8219821E821D821C821B8285
:103DC000A501B701CE0101960E94181B89819A8135
:103DD000009711F00E94F63526960FB6F894DEBFD4
:103DE0000FBECDBFDF91CF911F910F91FF90EF904C
:103DF000DF90CF90BF90AF9008954F925F926F92F7
:103E00007F929F92AF92BF92CF92DF92EF92FF92FA
:103E10000F931F93CF93DF9300D000D000D0CDB786
:103E2000DEB77C01962E1A821982FE01339684E059
:103E3000DF011D928A95E9F7642F70E0F70183890D
:103E400094896B01FFEFCF1ADF0A9E012F5F3F4F6E
:103E50005901992009F463C00E94BC07DC01169641
:103E60000D911C911F930F9380E092E09F938F938D
:103E7000BF92AF920E945A372801712C612CC80161
:103E8000880F991F0F900F900F900F900F900F9029
:103E90008531954090F1A1E0BFEFA30198010E9408
:103EA0004F356451714F8A4F9F4F0E942A35122F10
:103EB0000FEF2EE1A60161E070E0C7010E94070D3F
:103EC000692D70E09501A601C7010E94681E269623
:103ED0000FB6F894DEBF0FBECDBFDF91CF911F911B
:103EE0000F91FF90EF90DF90CF90BF90AF909F9099
:103EF0007F906F905F904F9008959801AFEFB0E082
:103F00000E94433224E135E040E050E024193509B5
:103F1000460957090E942A35022F1FEFCACF0E9477
:103F2000BC07BC01C5010E945337009142011091AA
:103F3000430120914401A60170E060E0BECF6F9282
:103F40007F928F92BF92CF92DF92EF92FF920F9368
:103F50001F93CF93DF937C01D62FB42E70E0FC012A
:103F6000838994890E94BC078C01C1E0CD0FF801C0
:103F700080859185892BF9F460904201709043010E
:103F800080904401F7018085C81720F5BC1610F118
:103F9000CC2ED12C282D8301A60170E060E0C70152
:103FA0000E94070D282DA60161E070E0C7010E9464
:103FB000070DCF5FE7CF4D2F60E0C7010E94FD1EC8
:103FC0004D2F61E0C7010E94FD1EF801008511859B
:103FD000DC2FCBCFDF91CF911F910F91FF90EF900E
:103FE000DF90CF90BF908F907F906F900895EF9269
:103FF000FF920F931F93CF93DF93DB0153966C9146
:10400000539754967C915497FB01F12CE12C00843A
:10401000F185E02D309721F02FEFE21AF20AF7CF69
:104020005096DC915097CD2FC69569F18D014C2F9C
:1040300055968D919C910E94CF0F6C2FF80183892A
:1040400094890E94411E4E2D6C2FC8010E949F1F13
:104050002E2D2150330BC217130629F4C150F8013D
:1040600080898250808B4C2F50E04F5F5F4F6D2FC7
:10407000617070E0C801DF91CF911F910F91FF90A7
:10408000EF900C94DF0BDF91CF911F910F91FF9078
:10409000EF900895AF92BF92CF92DF92EF92FF928E
:1040A0000F931F93CF93DF93EB01BB88CC88EB2D4D
:1040B000FC2D10E000E00084F185E02D309719F030
:1040C0000F5F1F4FF8CF88858250990B081719068C
:1040D000CCF51889D12ED694ED2CF12CB7018B2D6F
:1040E0009C2D0E94BC07AA24A394AD0C0E948B07B0
:1040F0002A2D50E040E0BC018B2D9C2D0E94691CB4
:10410000402F6D2DCE010E949F1F88898E5F888B66
:10411000A7014E5F5F4F612F617070E0CE010E947A
:10412000DF0B6B897C894A2D8D899E89DF91CF9128
:104130001F910F91FF90EF90DF90CF90BF90AF90C5
:104140000C94DE0EDF91CF911F910F91FF90EF90B5
:10415000DF90CF90BF90AF9008952F923F924F92F3
:104160005F926F927F928F929F92AF92BF92CF9207
:10417000EF92FF920F931F93CF93DF93CDB7DEB7EC
:104180002C970FB6F894DEBF0FBECDBF5C01C62ED4
:104190007A01462E512CB201FC01838994890E9438
:1041A000BC078C010E941A07882331F0B801F50181
:1041B000818992890E945337C7010E941A07882378
:1041C00009F4A2C0F8010680F781E02DFA87E9879B
:1041D000F887EF83F50181889288B401CE010196BA
:1041E0000E945337F50163887488B20161507109E8
:1041F000C3010E94BC070E948B079C878B87C70165
:104200000E948B071C01B2016F5F7F4FC3010E94A8
:10421000BC070E948B072B853C852216330620F0B5
:104220008215930508F05CC0B401C8010E945337A1
:10423000F501638974894C2D858996890E94CF0F79
:10424000C8010E942A1AF8016681778190E080E017
:104250004AE00E944C1985ED91E00E943F196C2DB7
:10426000F501838994890E94411EC7010E948B0732
:104270002C2D49855A85BC01F501838994890E94BA
:10428000691C182FF50163897489482F85899689DF
:104290000E94DE0E4C2DC11608F4412F6C2D1C150A
:1042A00008F4612FC5010E949F1F110FF501108BAB
:1042B0002C960FB6F894DEBF0FBECDBFDF91CF9125
:1042C0001F910F91FF90EF90CF90BF90AF909F9074
:1042D0008F907F906F905F904F903F902F900895B8
:1042E000B701C8010E945337F50163897489E980D9
:1042F000FA800B811C812D813E814F8158858589F3
:1043000096890E94F31CD4CFB701C8012C960FB632
:10431000F894DEBF0FBECDBFDF91CF911F910F91FB
:10432000FF90EF90CF90BF90AF909F908F907F9035
:104330006F905F904F903F902F900C9453373F9227
:104340004F925F926F927F928F929F92AF92BF92A5
:10435000CF92DF92EF92FF920F931F93CF93DF9351
:10436000CDB7DEB728970FB6F894DEBF0FBECDBF2E
:104370003C015B01DB0153964C90539754965C9043
:10438000F201912C812C0084F185E02D309721F0F1
:10439000BFEF8B1A9B0AF7CFF5018089D82ED694F0
:1043A000109200031092FF02E188F2886D2D70E0F8
:1043B000F82FF1703F2E80FD25C0C2010E94BC077E
:1043C0008C010E941A07811104C0B701C8010E9424
:1043D0005337DD2029F0A8016D2DC5010E94AD20C5
:1043E0004D2D632DC5010E94FD1ED50150968C9167
:1043F000B4E06B16710419F5882399F18150F50129
:10440000808B2FC0D7018D919C9198878F83C2019B
:104410000E94BC07BC01CE0101960E945337CD2CEF
:10442000E980FA800B811C812D813E814F81588566
:10443000B201F501858996890E94F31CD1CFF8E07D
:104440006F16710409F04DC09924880C991C21E065
:10445000821A91088815190424F48F5FD5015096AB
:104460008C93D50150968C91082F069510E0B82FAB
:10447000B170FB2E80FF10C0B801F50183899489CB
:104480000E94BC07D5015196ED91FC91DC01169676
:104490008D919C91918380838FE991E090930003AB
:1044A0008093FF02A8014F5F5F4F6F2D70E0C50141
:1044B00028960FB6F894DEBF0FBECDBFDF91CF9127
:1044C0001F910F91FF90EF90DF90CF90BF90AF9032
:1044D0009F908F907F906F905F904F903F900C9443
:1044E000DF0BB0E86B16710461F4E82DE150FF0BAF
:1044F0004F01880C991C881519040CF0B2CF8E5FFF
:10450000ADCF6114B8E07B0609F0ABCF823008F480
:10451000A8CF825074CF0F931F93CF93DF938B015B
:10452000FB018089C82FC695D82FD17080FD07C0A8
:10453000C11120C0DF91CF911F910F9108956C2F71
:1045400070E0838994890E94BC07FC01178216825F
:104550004C2F6D2FC8010E94FD1E4C2F50E04F5F65
:104560005F4F6D2F70E0C801DF91CF911F910F91C8
:104570000C94DF0B44E052E06C2FC8010E94AD2088
:10458000E7CFEF92FF920F931F93CF93DF9300D06B
:1045900000D000D0CDB7DEB77B01DB0150968C9107
:1045A000182F1695082F017080FD0FC0111130C013
:1045B00026960FB6F894DEBF0FBECDBFDF91CF9128
:1045C0001F910F91FF90EF900895612F70E0F70118
:1045D000838994890E94BC07FC01868197816AE0E7
:1045E00070E00E940235653185E0780710F477832A
:1045F0006683412F602FC7010E94FD1E412F50E0AE
:104600004F5F5F4F602F70E0C7010E94DF0BD0CF7C
:104610001A821982FE01339684E0DF011D928A9589
:10462000E9F7612F70E0F701838994890E94BC0744
:10463000BC01CE0101960E94533780E0282F30E064
:10464000E1E0F0E0EC0FFD1FE20FF31F90819F7D92
:1046500011F08F5FF3CF833051F480E28A83AE0193
:104660004F5F5F4F612FC7010E94AD20C2CF8823EB
:10467000B1F32C0F3D1F80E2D9018C93F0CF8F92C4
:104680009F92AF92BF92CF92DF92EF92FF920F93E1
:104690001F93CF93DF9300D000D000D0CDB7DEB70B
:1046A0006C018B01DB0150969C915097F92EF6948A
:1046B0006F2D70E053962D913C91B92FB170EB2E78
:1046C00090FF59C0C9010E94BC074C01FC018681C2
:1046D00097812AE0289F5001299FB00C1124E9E717
:1046E000F1E090E080E0208131812C213D21232BDD
:1046F000D1F1FC01EE0FFF1FE80FF91FE758FE4F45
:1047000082810E9412078A0D9B2D911D8531F5E053
:104710009F0728F4D40117969C938E9316974F2DDC
:104720006E2DC8010E94FD1EF8016089462F469536
:1047300050E04F5F5F4F617070E0C8010E94DF0B77
:1047400026960FB6F894DEBF0FBECDBFDF91CF9196
:104750001F910F91FF90EF90DF90CF90BF90AF909F
:104760009F908F900895019633968031910509F0BE
:10477000BACF80E0C6CF1A821982FE01339684E058
:10478000DF011D928A95E9F7C9010E94BC07BC01AF
:10479000CE0101960E94533720E0822F90E0E1E0A5
:1047A000F0E0EC0FFD1FE80FF91F3081303259F0B7
:1047B000E2E0F0E0EC0FFD1FE80FF91F308133233A
:1047C00011F02F5FEACFE9E7F1E030E020E040812F
:1047D00051814C215D21452B11F1F901EE0FFF1F95
:1047E000E20FF31FE758FE4F2281E1E0F0E0EC0F0B
:1047F000FD1F8E0F9F1FDC012C938C810E941207DE
:10480000863010F080E28C83FF2009F488CFAE015F
:104810004F5F5F4F6F2DC8010E94AD2080CF2F5F8B
:104820003F4F33962031310591F620E0DECF8F9255
:104830009F92AF92BF92CF92DF92EF92FF920E942F
:10484000BE1945E00E943C1A85ED91E00E943F1997
:104850000E94BE199B01AC0160E070E88CE593E416
:104860000E94BF3220E030E044E353E40E94523221
:1048700020E030EC43E755E40E9452324B015C01EA
:104880000E9474336B017C0145E0C501B4010E94B4
:104890003C1A85ED91E00E943F1920E030E040E4B1
:1048A00050E4C701B6010E94BC334B015C0124EF08
:1048B00038E24DE859E3C701B6010E9443312CE4C8
:1048C0003CE74DED59E30E9453326B017C0128ED2A
:1048D00032EC4DEB53EBC501B4010E9443319B0117
:1048E000AC01C701B6010E9453329B01AC0160E0EC
:1048F00070E080E89FE30E94BF3223E333E948E899
:1049000053E40E94523242E00E943C1A8AE092E054
:10491000FF90EF90DF90CF90BF90AF909F908F90DF
:104920000C942A1A1F920F920FB60F9211242F93F4
:104930003F938F939F93AF93BF9380914B0290913E
:104940004C02A0914D02B0914E0230914A0226E0F5
:10495000230F2D3768F129E8230F0396A11DB11D00
:1049600020934A0280934B0290934C02A0934D02F5
:10497000B0934E0280914F0290915002A09151024B
:10498000B09152020196A11DB11D80934F029093E8
:104990005002A0935102B0935202BF91AF919F91E8
:1049A0008F913F912F910F900FBE0F901F901895F0
:1049B0000296A11DB11DD4CF1F920F920FB60F9278
:1049C00011242F933F934F935F936F937F938F9314
:1049D0009F93AF93BF93EF93FF9383E592E00E9481
:1049E0008306FF91EF91BF91AF919F918F917F913E
:1049F0006F915F914F913F912F910F900FBE0F904C
:104A00001F9018951F920F920FB60F9211242F939B
:104A10008F939F93EF93FF93E0916302F091640271
:104A20008081E0916902F0916A0282FD1BC0908151
:104A300080916C028F5F8F7320916D02821741F01D
:104A4000E0916C02F0E0ED5AFD4F958F80936C027F
:104A5000FF91EF919F918F912F910F900FBE0F902B
:104A60001F9018958081F4CF1F920F920FB60F926E
:104A700011242F933F938F93EF93FF93E091F202D2
:104A8000F091F302268137812115310529F08281C9
:104A90008F5F8283F901F6CFFF91EF918F913F9164
:104AA0002F910F900FBE0F901F901895CF931092DB
:104AB00056021092550288EE93E0A0E0B0E0809399
:104AC000570290935802A0935902B0935A0283EB75
:104AD00091E0909354028093530285EC90E0909380
:104AE000600280935F0284EC90E090936202809376
:104AF000610280EC90E0909364028093630281EC09
:104B000090E0909366028093650282EC90E090932F
:104B100068028093670286EC90E090936A0280932B
:104B2000690210926C0210926D0210926E02109245
:104B30006F0289E090E00E945A35FC0110861782CE
:104B40009093F1028093F00288E090E00E945A3541
:104B5000FC01178216829093F3028093F20280E0A8
:104B600098EF9093FE028093FD0220EE37E03093A1
:104B7000FC022093FB02909300038093FF0291E0DC
:104B8000909301031092020325EC31E03093F6027A
:104B90002093F50287E080933C0389E080933D03F6
:104BA0008FEF80933E0380933F038093400328E080
:104BB0002093410380934203909313038CE090E091
:104BC0009093270380932603E1EEF9E0E491F0E06F
:104BD000EE0FFF1FE053F64FA591B491B093290358
:104BE000A0932803E0ECF9E0849180933203982F9E
:104BF000909590933703E3EEF9E0E491F0E0EE0F47
:104C0000FF1FE053F64F2591349130932B032093EF
:104C10002A03E2ECF9E0E491E0933303E095E093BA
:104C2000380310922D0310922C031092340310922B
:104C3000390310922F0310922E0310923503109215
:104C40003A031092310310923003109236031092FF
:104C50003B03EC91E82BEC93E0912A03F0912B03BA
:104C6000808190913303892B808387E00E943005F7
:104C700089E00E94300561E088E00E944F0588E0ED
:104C80000E943005CFB7F8948091F402811124C0BE
:104C9000E4EEF9E08491E3ECF9E09491E82FF0E0A0
:104CA000EE0FFF1FE155F64FA591B491EC91E9236A
:104CB00021F461E08AE00E944F058AE00E943005FD
:104CC0008CB580618CBD8CB580648CBD8DE00E94FC
:104CD00030058BE00E9430058091F4028F5F809355
:104CE000F402CFBF8CB58C7F8CBD8DB58E7F8DBD12
:104CF0008CB58F7D8CBD8CB5837F8CBD10920303EA
:104D00001092040310920E0310920D0388E894E9A8
:104D1000909312038093110320E431E03093060353
:104D20002093050380EE91E090930803809307039E
:104D300030930A032093090390930C0380930B0391
:104D4000CF910895CF93DF93CDB7DEB7EE970FB62F
:104D5000F894DEBF0FBECDBF789484B5836084BD68
:104D600085B5836085BD80916E00816080936E0003
:104D700092E0909381008091810081608093810016
:104D8000809180008160809380008091B100846078
:104D90008093B1008091B00081608093B00086E87C
:104DA00080937A001092C1008FEE84B98FE387B9A7
:104DB00082EE8AB9E0916302F09164029083E091FF
:104DC0005F02F09160021082E0916102F091620254
:104DD00088E0808310926B02E0916702F091680294
:104DE00086E08083E0916502F091660280818869A7
:104DF0008083E0916502F091660280818F7D8083DF
:104E00008DE092E00E942A1A61E085E10E94730819
:104E100080E58CBD81E08DBD60E085E10E94730876
:104E200086E40E94C20880EE0E94C2088CE20E94C2
:104E3000C2088BEA0E94C20880E00E94C20886E095
:104E40000E94C20861E085E10E9473081092800010
:104E50008DE08093810084E89EE1909389008093A7
:104E6000880080916F00826080936F007894009139
:104E7000F2021091F302D80116968D919C9117972A
:104E8000009709F0B6C187E194E211969C938E9346
:104E900012961C92129781E013968C931397159695
:104EA0001C921E92149788E090E00E945A35FC01F3
:104EB00017821682D80117969C938E9316978AE0D4
:104EC00090E00E945A351C01FC011186108687E192
:104ED00090E00E945A358C0180E190E00E945A35A2
:104EE0007C018CE591E0D70111969C938E938CE325
:104EF00090E013969C938E93129780E890E015961D
:104F00009C938E93149780E091E017969C938E93D8
:104F100016978DE018968C93189782E019968C93CB
:104F200084E390E00E945A35F7019387828788E0F6
:104F300090E00E945A35D7011D969C938E931C9742
:104F40008EE490E00E945A35F7019787868789E1C1
:104F500090E00E945A353C0189E1E5E4F1E0D3019B
:104F600001900D928A95E1F780E1F701DE0111963B
:104F700001900D928A95E1F780E1FE013196D8010A
:104F800001900D928A95E1F7D80150961C925097A6
:104F900084E192E052969C938E93519754963C9262
:104FA0002E92539756967C926E92559788E091E098
:104FB0001B969C938E931A9780E091E01D969C938C
:104FC0008E931C97980141E06CE070E08FE991E2CC
:104FD0000E942019980145E060E878E08FE991E2AD
:104FE0000E942019980141E062E777E78FE393E29E
:104FF0000E942019980141E061E070E081EC92E2AA
:105000000E942019980141E060E070E88BE892E28C
:105010000E942019980142E064E070E087EF9FE170
:105020000E942019980142E068E070E08AE490E272
:105030000E94201988E0EEE5F1E0DE0199960190EA
:105040000D928A95E1F788E0FE01B996DE0191960E
:1050500001900D928A95E1F77101F70180859185A4
:10506000009709F0C8C088E0FE01B196D701019011
:105070000D928A95E1F78AE090E00E945A35DC01B2
:1050800019961C921E921897F701918780872FEF2F
:1050900046E950E064E170E0C1010E94691C2FEF15
:1050A00040E253E066E470E0C1010E94691C2FEF0A
:1050B00048EC50E064E071E0C1010E94691C2FEFF0
:1050C00040EB54E060E570E0C1010E94691C2FEFE5
:1050D00048EE53E060E570E0C1010E94691C2FEFCB
:1050E00050E040E060E971E0C1010E94691C0E944B
:1050F000A5098091420387FD03C061E00E944F052E
:105100008091110390911203019609F045C060E06F
:1051100084E090E00E94E109892B21F561E084E0C0
:1051200090E00E94E10981159048E1F480916601C8
:1051300090916701A0916801898B9A8BAB8B23E0DA
:10514000AE014F5E5F4F69EB85EF92E00E942A123D
:1051500060E080ED90E00E94E10961E080ED90E088
:105160000E94E10961E083ED90E00E94E109813451
:10517000A3E99A0769F08638B4E99B0749F08838B3
:10518000E4E99E0729F060E090E080E00E94E109F8
:105190009093120380931103E0901103F090120397
:1051A0000E94A50968EC70E080E090E00E94C005D4
:1051B000F5E2EF16F3E9FF0609F4FFC008F066C058
:1051C00085E7E816F80609F4C1C0B8F4B6E0EB16B6
:1051D000B1E1FB0609F466C3E3E8EE16E2E1FE0680
:1051E00009F421C38FEF90E09093100380930F0395
:1051F0001CC18C0140CE7C0130CFF5E3EF16F7E700
:10520000FF0609F4C6C220E9E216F20659F783E068
:1052100090E09093100380930F038AE290E09093C4
:105220001503809314038BE290E09093170380930F
:1052300016038CE290E090931903809318038EE29A
:1052400090E090931B0380931A0383E390E0909384
:105250001D0380931C0387E390E090931F038093CA
:105260001E0386E390E0909321038093200381E066
:1052700090E09093230380932203909325038093DF
:10528000240366E470E081E193E052C086E8E8160A
:1052900084E9F80609F4F2C108F04DC0B8E2EB1653
:1052A000B3E9FB0609F489C0E1E4EE16E3E9FE0682
:1052B00009F098CF82E090E09093100380930F0361
:1052C0008AE290E090931503809314038BE290E0C0
:1052D00090931703809316038CE290E09093190348
:1052E000809318038EE290E090931B0380931A033F
:1052F00083E390E090931D0380931C0387E390E089
:1053000090931F0380931E0386E390E09093210304
:1053100080932003109223031092220381E090E0F7
:1053200090932503809324036AE770E087E593E078
:105330000E949B127AC0F8E8EF16F4E9FF0609F420
:10534000DAC125E9E216F20609F04CCF81E090E0DF
:105350009093100380930F0310921503109214037F
:10536000109217031092160322E230E030931903D3
:105370002093180330931B0320931A032EE030E090
:1053800030931D0320931C0324E130E030931F036E
:1053900020931E0326E130E0309321032093200365
:1053A00090932303809322039093250380932403F7
:1053B0006FE770E082E992E0BBCF10921003109289
:1053C0000F031092150310921403109217031092FA
:1053D000160382E290E09093190380931803909350
:1053E0001B0380931A0381E690E090931D03809342
:1053F0001C038AE690E090931F0380931E0383E0D2
:1054000090E0909321038093200381E090E09093BB
:1054100023038093220310922503109224036CEC43
:1054200070E081ED93E00E94830980910D030E945A
:105430003416E0912803F09129038081909137037D
:1054400089238083F090220320910F033091100371
:10545000E0912A03F0912B03809138032115310547
:1054600009F055C290818923808361E685EF92E03F
:105470000E94F708E0912A03F0912B03808190911C
:105480003303892B80836F2D85EF92E00E94F7080C
:10549000E0912803F0912903808190913203892BB8
:1054A000808381E00E943416109200031092FF0264
:1054B0001092FC021092FB028FEF9FEF9093FE027E
:1054C0008093FD0281E080930203C8010E94410C99
:1054D0002AE132E050E040E070E060E0C8010E9464
:1054E000681E2FE132E050E040E061E070E0C8016A
:1054F0000E94681ED80118964C91415060E0C80186
:105500000E949F1F8FE991E0909300038093FF0218
:1055100041E050E070E060E0C8010E94DF0B1092B3
:1055200000031092FF02F30144815581628173816F
:1055300086819781680F791F808D681B7109808132
:1055400091810E94B30BD30116964D915C911797F0
:1055500012966D917C91139758962C9158978D9136
:105560009C91820F911D0E94C90BF301808D482EE2
:105570004694512C90E0C080D18024813581C20EA8
:10558000D31EE280F38026813781E20EF31EE81AF3
:10559000F90A8601081B190B92012E0D3F1DA80167
:1055A000B701C6010E94FE0D970124193509A80113
:1055B000B701C6010E94FE0DD3015896EC90589792
:1055C0004E2C4694512CF12CCD90DC901197CE0CA2
:1055D000DF1C12960D911C91E00EF11EA2014C0DE4
:1055E0005D1D9701B801C6010E94FE0DA601441978
:1055F00055099701B801C6010E94FE0DF101C08452
:10560000D184D60118968D919C91892B09F4E0C123
:10561000C6010E948B077C01C1010E948B078C018F
:10562000F6016681778190E080E00E94E2304B01D4
:105630005C01B70190E080E00E94E2306B017C01E8
:10564000D10116966D917C9190E080E00E94E2304D
:105650006BAF7CAF8DAF9EAFB80190E080E00E9451
:10566000E230AB01BC010BAD1CAD2DAD3EADC301B5
:105670000E94890EF10120843184C0CF85E090E042
:105680009093100380930F038AE290E090931503A8
:10569000809314038BE290E090931703809316039A
:1056A0008CE290E090931903809318038EE290E0CF
:1056B00090931B0380931A0383E390E090931D0360
:1056C00080931C0387E390E090931F0380931E0355
:1056D00086E390E0909321038093200310922303AC
:1056E00010922203109225031092240365E570E0C6
:1056F0008DE392E01DCE8AE090E0909310038093BA
:105700000F03809126039091270363E070E00C97CC
:10571000E9F58AE392E00E949B128AE290E090937E
:105720001503809314038BE290E09093170380930A
:1057300016038CE290E090931903809318038EE295
:1057400090E090931B0380931A0383E390E090937F
:105750001D0380931C0387E390E090931F038093C5
:105760001E0386E390E09093210380932003109220
:1057700023031092220381E090E09093250380930D
:10578000240362E570E085EE91E0D2CD87E392E0FC
:10579000C2CF8091070390910803803A9105E9F503
:1057A00086E090E09093100380930F038AE290E0EC
:1057B00090931503809314038BE290E0909317036A
:1057C000809316038CE290E0909319038093180362
:1057D0008EE290E090931B0380931A0383E390E0A2
:1057E00090931D0380931C0387E390E090931F0325
:1057F00080931E0386E390E090932103809320031F
:105800001092230310922203109225031092240376
:105810006FE570E086E891E08BCD8038910531F638
:1058200089E090E0BFCF87E090E0909310038093F1
:105830000F0385E490E0909315038093140384E4B0
:1058400090E0909317038093160382E290E0909388
:105850001903809318038EE290E090931B038093CA
:105860001A0381E490E090931D0380931C0382E46B
:1058700090E090931F0380931E0383E090E0909349
:1058800021038093200381E090E090932303809391
:105890002203109225031092240360E670E086E252
:1058A00091E0C1CD88E090E09093100380930F03C6
:1058B00080E190E0909315038093140380EB90E0D7
:1058C00090931703809316031092190310921803F4
:1058D00010921B0310921A0310921D0310921C03C6
:1058E00010921F0310921E031092210310922003A6
:1058F00081E090E09093230380932203109225038C
:10590000109224036CE370E08AEE90E011CD213018
:105910003105B1F490818923808361E085EF92E0C5
:105920000E94F708E0912A03F0912B038081909167
:105930003303892B808368E0F110A6CD6AE0A4CD03
:1059400027303105A9F520910D0330910E032D7FED
:105950002115310519F541E2D42EF11002C0DD24E4
:10596000D39490818923808360E085EF92E00E9448
:10597000F70861E085EF92E00E94F708E0912A03C2
:10598000F0912B03808190913303892B80836D2DBF
:1059900085EF92E00E94F70863E876CD213031056B
:1059A00001F732E2D32EF110DCCF22E0D22ED9CF94
:1059B0009081892380832830310529F466EAF1102B
:1059C00063CD67EA61CD61E2F1105ECD60E25CCD4E
:1059D00019AA1AAA1BAA1CAA80E090E0A0E8BFE3BB
:1059E0008DAB9EABAFABB8AF80E1E9E6F1E0DE0195
:1059F000519601900D928A95E1F780E190E00E9426
:105A00005A358C0184E090E0D80111969C938E93D6
:105A100013969C938E93129788ED91E015969C9324
:105A20008E93149780E390E017969C938E9316972D
:105A300082E018968C93189784E019968C9388E1ED
:105A400090E00E945A35F80197878687CE01C1966B
:105A500093878287809795878487C8010E94410C2D
:105A6000A12CB12C90E0292E90E0392E912C812C84
:105A700010E000E0D12CC12C602F617084E20E9404
:105A80007308B8017595679583E20E94730860E01A
:105A900080E10E9473080E9424050E94240561E0B1
:105AA00080E10E947308F12CE12C712C0E942405E6
:105AB0000E94240589B18295817089AF1AAE89ADA3
:105AC0009AAD0E2C01C0880F0A94EAF7782AFFEFEE
:105AD000EF1AFF0A28E0E216F10441F7872D8F70D4
